:0A000000020E1BE4F526220D0A0093
:10000B000208647BFF7A0079071210EB0212193099
:10001B0001FDC201E4F51F22021036759A50E4F57A
:10002B00A2F587F5B5759CFD758E10D2AFF5B87539
:06003B00AF0122D2802279
:1000430002109F02019AEC5D046005E859047003F5
:1000530002019012015B580460F6EC4860F2EC7008
:1000630004FDFEFF22C860DB2481C85009C39860E9
:100073000250060201979850CAF582E9294B4A704B
:1000830005AB8202018675F0007C1A7880C3EF9B72
:10009300EE9AED99400DC3EF9BFFEE9AFEED99FDAD
:1000A300E842F0DC23ACF0D0E0FFD0E0FED0E0FD8E
:1000B300AB8220E7101BEB60BAEC2CFCEF33FFEEB6
:1000C30033FEED33FD020172E803F830E705C0F0BB
:1000D30075F000EF2FFFEE33FEED33FD40B830E750
:1000E300C280AA75F020800E75F010800575F008A7
:1000F3007D007E007F003392D530D5031203DDEC03
:10010300334010EF33FFEE33FEED33FDEC33FCD51C
:10011300F0ED22E5F0247EA2D513CC92E7CDCEFFFD
:1001230022EDD2E7CD33EC3392D524814006E4FFB0
:10013300FEFDFC22FCE4CFCECDCC24E0501174FFB5
:1001430080EDC3CC13CCCD13CDCE13CECF13CF04C0
:1001530070F030D5DE0203DDE9D2E7C933E833F8C6
:1001630092D5EDD2E7CD33EC33FC5002B2D522EC7D
:1001730030E7100FBF000C0EBE00080DBD00040BCE
:10018300EB6014A2D5EB13FCED92E7FD2274FFFCA8
:10019300FDFEFF22E480F8A2D574FF13FC7D80E40A
:1001A30080EFBB010CE58229F582E5833AF583E014
:1001B300225006E92582F8E622BBFE06E92582F8ED
:1001C300E222E58229F582E5833AF583E49322F876
:1001D300BB010DE58229F582E5833AF583E8F02238
:1001E3005006E92582C8F622BBFE05E92582C8F23E
:1001F30022EF8DF0A4A8F0CF8CF0A428CE8DF0A42C
:100203002EFE22BC000BBE0029EF8DF084FFADF063
:1002130022E4CCF875F008EF2FFFEE33FEEC33FC4D
:10022300EE9DEC984005FCEE9DFE0FD5F0E9E4CE83
:10023300FD22EDF8F5F0EE8420D21CFEADF075F052
:1002430008EF2FFFED33FD4007985006D5F0F2225B
:10025300C398FD0FD5F0EA22BB0110E58229F58290
:10026300E5833AF583E0F5F0A3E0225009E925821E
:10027300F886F008E622BBFE0AE92582F8E2F5F0EB
:1002830008E222E5832AF583E993F5F0A3E99322B3
:10029300F8BB0111E58229F582E5833AF583E8F09D
:1002A300E5F0A3F0225009E92582C8F608A6F0225A
:1002B300BBFE09E92582C8F2E5F008F222E88FF0D7
:1002C300A4CC8BF0A42CFCE98EF0A42CFC8AF0EDDA
:1002D300A42CFCEA8EF0A4CDA8F08BF0A42DCC388E
:1002E30025F0FDE98FF0A42CCD35F0FCEB8EF0A4C6
:1002F300FEA9F0EB8FF0A4CFC5F02ECD39FEE43C80
:10030300FCEAA42DCE35F0FDE43CFC2275F0087523
:100313008200EF2FFFEE33FECD33CDCC33CCC5823D
:1003230033C5829BED9AEC99E58298400CF582EEF9
:100333009BFEED9AFDEC99FC0FD5F0D6E4CEFBE4E1
:10034300CDFAE4CCF9A88222B800C1B90059BA00A9
:100353002DEC8BF084CFCECDFCE5F0CBF97818EF04
:100363002FFFEE33FEED33FDEC33FCEB33FB10D705
:1003730003994004EB99FB0FD8E5E4F9FA227818C6
:10038300EF2FFFEE33FEED33FDEC33FCC933C91021
:10039300D7059BE99A4007EC9BFCE99AF90FD8E053
:1003A300E4C9FAE4CCFB2275F010EF2FFFEE33FE25
:1003B300ED33FDCC33CCC833C810D7079BEC9AE898
:1003C30099400AED9BFDEC9AFCE899F80FD5F0DA19
:1003D300E4CDFBE4CCFAE4C8F922C3E49FFFE49E36
:1003E300FEE49DFDE49CFC22EB9FF5F0EA9E42F0C7
:1003F300E99D42F0EC6480C864809845F022EB9F4D
:10040300F5F0EA9E42F0E99D42F0E89C45F022E8CF
:10041300600FECC313FCED13FDEE13FEEF13FFD8D7
:10042300F122E86010ECA2E713FCED13FDEE13FEDE
:10043300EF13FFD8F022E8600FEFC333FFEE33FE74
:10044300ED33FDEC33FCD8F122ECF0A3EDF0A3EE99
:10045300F0A3EFF022A8828583F0D083D082120428
:100463006F12046F12046F12046FE473E493A3C555
:1004730083C5F0C583C8C582C8F0A3C583C5F0C5CD
:1004830083C8C582C822A42582F582E5F03583F5A9
:100493008322BB010789828A8302052C5005E9F870
:1004A30002051ABBFE05E9F802053E89828A83022A
:1004B3000550BB011A89828A83D0F0D0E0F8D0E0DE
:1004C300F9D0E0FAD0E0FBE8C0E0C0F00205355017
:1004D30016E9F8D083D082D0E0F9D0E0FAD0E0FB7F
:1004E300C082C083020523BBFE16E9F8D083D08205
:1004F300D0E0F9D0E0FAD0E0FBC082C08302054728
:1005030022C5F0F8A3E028F0C5F0F8E58215827063
:10051300021583E038F022E6FB08E6FA08E6F92242
:10052300EBF608EAF608E9F622E0FBA3E0FAA3E01B
:10053300F922EBF0A3EAF0A3E9F022E2FB08E2FAE6
:1005430008E2F922EBF208EAF208E9F222E493FB6B
:10055300740193FA740293F9228F0B8E0A8D098C1E
:10056300087B807A5179017800121134EF2401F568
:1005730010E43EF50FE43DF50EE43CF50D7B807A87
:100583005179017800AF0BAE0AAD09AC08121134F2
:10059300AC00AD01AE02AF038F148E138D128C111C
:1005A300E51024FCFFE50F34FFFEE50E34FFFDE507
:1005B3000D34FFFCE47B07FAF9F81211349001D9EA
:1005C300EBF09000037407F0A374E5F012124AAB4A
:1005D30007E5102493FFE50F34FEFEE50E34FFFD1F
:1005E300E50D34FFFCC3EF9BFFEE9400FEED94009A
:1005F300FDEC9400FCE4FBFAF9F8C31203EB503270
:10060300900004E004F07006900003E004F012127E
:100613004AEF246DFFE43401FAC3E5109FF510E5BA
:100623000F9AF50FE50E9400F50EE50D9400F50D08
:10063300809A12124AEF9001CE6005741DF0800378
:10064300741CF09000027401F0E4F50C74CD250CD9
:10065300F582E43401F583E0FBC3E5109BFFE50F6E
:100663009400FEE50E9400FDE50D9400FCE4FBFA16
:10067300F9F8C31203EB503074CD250CF582E43442
:1006830001F583E0FBC3E5109BF510E50F9AF50F29
:10069300E50E99F50EE50D9400F50D900002E004CA
:1006A300F0050CE50CB40CA49001C7E510F0E47B55
:1006B300107A0EF9F8AF14AE13AD12AC1112113457
:1006C3009001C8EFF0AF14AE13AD12AC11E47B1080
:1006D3007A0EF9F8121134AC00AD01AE02AF038FFC
:1006E300148E138D128C11E47B3CFAF9F812113439
:1006F300900001EFF0AF14AE13AD12AC11E47B3CEC
:10070300FAF9F8121134AC00AD01AE02AF038F1445
:100713008E138D128C11E47B3CFAF9F8121134908C
:100723000000EBF022534243283531293B44435622
:100733003136283237352C3136332C274F4E272C80
:100743003136293B00534243283531293B44435634
:100753003136283237352C3136332C274F4646274E
:100763002C3136293B00534243283436293B44433A
:10077300563136283237352C3232302C274F4E271C
:100783002C3136293B00534243283436293B44431A
:10079300563136283237352C3232302C274F4646E5
:1007A300272C3136293B00534243283233293B441B
:1007B30043563136283137382C3232352C2700B79F
:1007C300D6D6D3272C3136293B006368616E676523
:1007D3000041542B4349504D55583D310D0A0041BA
:1007E300542B43495053544152543D302C225443CB
:1007F30050222C223230332E3139352E3133342EE0
:10080300313135222C373030300D0A0041542B431F
:10081300495053454E443D302C370D0A00686168FA
:1008230061310D0A0068616861320D0A0068616810
:1008330061330D0A00434C52283136293B44495257
:100843002833293B4653494D472832303937313510
:10085300322C302C302C3332302C3234302C3029A3
:1008630000C0E0C0F0C083C082C0D075D000C0001B
:10087300C001C002C003C004C005C006C007758C18
:10088300DC758A2A9001C9E0FCA3E0FDA3E0FEA386
:10089300E0FFE4FAF9F8EF2401FFEA3EFEE93DFD4B
:1008A300E83CFC9001C912044CE47B64F89001C954
:1008B300E0FCA3E0FDA3E0FEA3E0FF121134AC00D3
:1008C300AD01AE02AF03EC4D4E4F7053B2909001A9
:1008D300DCE0FCA3E0FDA3E0FEA3E0FFE4FAF9F80B
:1008E300EF2401FFEA3EFEE93DFDE83CFC9001DC1C
:1008F30012044CD205D39001DBE094009001DAE0BE
:100903009400400CA3E024FFF09001DAE034FFF000
:100913009001DAE07004A3E06401700312003EE486
:100923007B2C7A01F9F89001C9E0FCA3E0FDA3E078
:10093300FEA3E0FF121134AC00AD01AE02AF03EC35
:100943004D4E4F7002D2067F407E427D0F7C009059
:1009530001C9E0F8A3E0F9A3E0FAA3E0FBC31203A3
:10096300EB400A9001C912045800000000D007D0E0
:1009730006D005D004D003D002D001D000D0D0D00F
:1009830082D083D0F0D0E0328B088A09890A750BB4
:10099300FF750CFFE4F50EAB08AA09A90A850E82C0
:1009A3007583001201A57003020A9B643B60030276
:1009B3000A84E50BB4FF09E50D24D0F50B020A8484
:1009C300E50CF46003020A84050EE50D24D0F50C52
:1009D300E4F50FAB08AA09A90A850E8275830012F4
:1009E30001A5FF643B6053EF6050AF0E050E8F828D
:1009F3007583001201A5FFE50BFD3395E0FC900024
:100A03000575F05AED120489EC75F05AA42583F5A7
:100A130083E50CFD3395E0FC75F012ED120489ECCF
:100A230075F012A42583F583AE0F050FE5822EF52D
:100A330082E43583F583EFF08099AF0BEF3395E0D4
:100A4300FE90000575F05AEF120489EE75F05AA472
:100A53002583F583AF0CEF3395E0FE75F012EF12AB
:100A63000489EE75F012A42583F583AF0F050FE516
:100A7300822FF582E43583F583E4F0750CFF750B63
:100A8300FFAB08AA09A90AAF0E050E8F8275830072
:100A93001201A5F50D02099A22EF4E7003020B9F76
:100AA3009003E2E07002A3E07003020B9FCDEFCD51
:100AB300CCEECCED24FCFDEC34FFFC75100375117A
:100AC300E0851182851083E0FAA3E08A12F51345CD
:100AD300126011D3E5139FE5129E5008851210850D
:100AE300131180DDE5134512604A8D828C83A3A325
:100AF300E0FAA3E02FFFEA3EFEEF65137003EE6515
:100B0300127031851382851283A3A3E0FEA3E02430
:100B130004FFE43E8D828C83A3A38FF0120504852A
:100B23001382851283E0FFA3E08D828C83CFF0A331
:100B3300EFF0800B8D828C83E512F0A3E513F08533
:100B43001182851083A3A3E0FEA3E02511FFEE35F8
:100B530010FEEF2404FFE43EFEEF6D7002EE6C70B6
:100B6300308D828C83A3A3E0FEA3E02404FFE43E44
:100B7300851182851083A3A38FF01205048D828CC7
:100B830083E0FFA3E0851182851083CFF0A3EFF00C
:100B930022851182851083ECF0A3EDF022438901B5
:100BA300758CDC758A2AD2AFD2A9D28CD2AF7E01E2
:100BB3007FE07D007C011211787F097E00120C58C2
:100BC300AA06A9077B018B158A168917900007E4EB
:100BD300F5F01202938B188A19891A1B7A0079008F
:100BE300C003C002C001AB18AA19A91A1204B5E4C4
:100BF300F50B7B0AFD7F0C120EA7E4F50BFB7D0FB3
:100C03007F0D120EA7E4F50BFB7D0F7F0E120EA7CF
:100C13007F027E00120F32E4FFE4FE75F05AEFA468
:100C23002405F582E5F03400F58375F012EE120425
:100C330089E4F00EBE05E40FBF05DE7BFF7A0C7975
:100C4300F412098B9001DCE0FCA3E0FDA3E0FEA31A
:100C5300E0FF02055C8E0F8F107E037FE08F828E94
:100C630083E0FCA3E0FD4C7003FEFF228D828C83A6
:100C7300A3A3E0FAA3E0FBC39510EA950F5008CEB7
:100C8300ECCECFEDCF80D6C3EB9510F512EA950FDE
:100C9300F511C3E5129410E511940050198D828C5F
:100CA30083E0FBA3E08F828E83CBF0A3EBF0ED24F4
:100CB30004FFE43CFE2274FC2512F51274FF351187
:100CC300F5118D828C83A3A3F0A3E512F0ED240428
:100CD300FFE43CFEEF2512FFEE3511FE8F82F58314
:100CE300A3A3E50FF0A3E510F0EF2404FFE43EFE19
:100CF30022313B303BD4CBBFD87CB2A9D1A7C2A50C
:100D0300413036003A002020000D0A0053424328A8
:100D13003531293B44435632342838302C32352C74
:100D23002700272C3136293B0044435632342838D8
:100D3300302C35302C2700D4C200C8D5272C3136AF
:100D4300293B0044435632342838352C37352C2779
:100D530000D0C7C6DAD2BB00D0C7C6DAB6FE00D011
:100D6300C7C6DAC8FD00D0C7C6DACBC400D0C7C631
:100D7300DACEE500D0C7C6DAC1F900D0C7C6DACCEF
:100D8300EC0007090E10123232140032C101C10403
:100D9300C102C103C10042034C000A011F00012626
:100DA300004802E031300931313100004103CD0008
:100DB3004903C33131313131310D0A004401C900D6
:100DC3000000004401DC00BE48764C01CD1F1C1F0F
:100DD3001E1F1E1F1F1E1F1E1F42000307E541008B
:100DE30002054101C7184101C80C4100010041003F
:100DF30000004101D900C105C1064201DA0000012A
:100E03002703042203040506C107C1084803E000C1
:100E13000000000000000000787FE4F6D8FD758133
:100E230027020E620211E7E493A3F8E493A34003BD
:100E3300F68001F208DFF48029E493A3F854072431
:100E43000CC8C333C4540F4420C8834004F45680F1
:100E53000146F6DFE4800B01020408102040809075
:100E63000D8FE47E019360BCA3FF543F30E509542A
:100E73001FFEE493A360010ECF54C025E060A84099
:100E8300B8E493A3FAE493A3F8E493A3C8C582C890
:100E9300CAC583CAF0A3C8C582C8CAC583CADFE965
:100EA300DEE780BE8F088D098B0A7F097E00120C56
:100EB30058AA06A907750C018A0D890EAB0CC0034D
:100EC300C002C001AB18AA19A91A1204B5AB0CAA27
:100ED3000DA90E900004E5081201D2900005E50962
:100EE3001201D2900006E50A1201D2900003E50B2D
:100EF3001201D27B007A007900C003C002C001ABAB
:100F03000CAA0DA90E1204B5AB18AA19A91A9000C0
:100F13000712025B2401FFE435F0AB0CAA0DA90E06
:100F23009000078FF01202938B188A19891A228E68
:100F3300088F0985150A85160B85170CAB0AAA0BB2
:100F4300A90C120495E94A4B606DAB0AAA0BA90CD4
:100F530012049590000712025B65097004E5F065C1
:100F63000870438B0D8A0E890FE518851983851A3E
:100F7300826B7008E965827003EA65837009850AEC
:100F830018850B19850C1AAB0DAA0EA90F1204951F
:100F9300C003C002C001AB0AAA0BA90C1204B5AE70
:100FA3000EAF0F020A9CAB0AAA0BA90C1204958B75
:100FB3000A8A0B890C8085227DFE79EF300902D2E3
:100FC30008E4FCA804AF05EF08800123D8FDF5B0C1
:100FD300E5B054F0FE64F0604F1212D5A804AF05DB
:100FE300EF08800123D8FDF5B0E5B054F064F0605C
:100FF30037AEB0E4FBA803AF01EF08800123D8FDAF
:1010030054F0FAA804AF05EF08800123D8FD540F6C
:101013004AB506103008037FFF22D208EC25E025ED
:10102300E02BFF220BBB04CD0CEC64047095C208CB
:101033007FFF22C0E0C083C082C0D075D000C0064D
:10104300C007C298AF99200146E51FC394644005C9
:10105300C204751F00BF2C027F2EAE1F051F744EE6
:101063002EF582E43403F583EFF0300415BF0A0B49
:10107300E51FD394024004D2018003751F00C2040C
:10108300800DBF0D04D2048006BF0A03751F00D074
:1010930007D006D0D0D082D083D0E032C0E0C0F0F9
:1010A300C083C082C0D075D000C000C001C002C0E0
:1010B30003C004C005C006C0077FFF121291EF6092
:1010C3000CE4FF121291E59BB40A02C202D007D0CE
:1010D30006D005D004D003D002D001D000D0D0D0A8
:1010E30082D083D0F0D0E0328B088A09890AE4FFEA
:1010F300FEAB08AA09A90AAD060E8D8275830012FC
:1011030001A570EDE4FFEE14FDEFC39D5022AB0883
:10111300AA09A90A8F827583001201A5FDAC2605D1
:101123002674E82CF582E43402F583EDF00F80D6C3
:1011330022C2D5E830E70FB2D5E4C39BFBE49AFAA9
:10114300E499F9E498F8EC30E717B2D512116A1272
:10115300034BE4C39BFBE49AFAE499F9E498F8801F
:101163000312034B30D50DE4C39FFFE49EFEE49DC1
:10117300FDE49CFC22EF4E7008FE7F01ED1D700123
:101183001C9003E0EEF0A3EFF0A3ECF0A3EDF090DE
:1011930003E0E0FEA3E0FFF5828E83E4F0A3F0ED2D
:1011A30024FCFDEC34FF8F828E83A3A3F0A3EDF028
:1011B3002212001A7FE87E03E4FDFCC3ED9FEC9E40
:1011C3005021E4FBFA900000A3E582645F4583703D
:1011D300F70BBB00010AEB640A4A70E90DBD00017D
:1011E3000C80D822120BA01212BF12002612000389
:1011F3007BFF7A0879381210EB12000E1211B71226
:1012030011BBC209120FBBEFF460F7B2957F2C7EBE
:10121300011211BB80ECE4FEFF12127AEEC3952695
:10122300501D74E82EF582E43402F583E0F59B7FCC
:10123300FF1212A8EF60F8E4FF1212A80E80DD7F00
:101243000112127A020003900003E0FEA3E0FFAB59
:1012530007AA06EB5403700AFC7D64120206ED4CE8
:10126300700FAE02AF037C017D90120206ED4C704D
:10127300037F01227F0022BFFF06E5AF5401FF2257
:10128300EF600543AF01800353AFFE7F0122BFFF31
:1012930006E59A5401FF22EF6005439A0180035348
:1012A3009AFE7F0122BFFF06E59A5402FF22EF60F8
:1012B30005439A028003539AFD7F012243892075D7
:1012C3008DFD758BFDD28ED29CC29FD29ED2AFD2A2
:0D12D300AC2200007F6C7E90DEFEDFFC226E
:00000001FF
