:1000000002227A7F50DFFE220D0A000216908F2412
:10001000122E917F46122D5BAF24122D5B022EC74C
:10002000C280220226D2759A50E4F5A2F587F5B572
:10003000759CFD758E10D2AFF5B875AF0122D280D8
:10004000D2822202279802019AEC5D046005E859E9
:1000500004700302019012015B580460F6EC4860E2
:10006000F2EC7004FDFEFF22C860DB2481C8500959
:10007000C398600250060201979850CAF582E92998
:100080004B4A7005AB8202018675F0007C1A7880BD
:10009000C3EF9BEE9AED99400DC3EF9BFFEE9AFEE6
:1000A000ED99FDE842F0DC23ACF0D0E0FFD0E0FEBB
:1000B000D0E0FDAB8220E7101BEB60BAEC2CFCEF2C
:1000C00033FFEE33FEED33FD020172E803F830E753
:1000D00005C0F075F000EF2FFFEE33FEED33FD406D
:1000E000B830E7C280AA75F020800E75F010800548
:1000F00075F0087D007E007F003392D530D5031265
:10010000089EEC334010EF33FFEE33FEED33FDEC91
:1001100033FCD5F0ED22E5F0247EA2D513CC92E796
:10012000CDCEFF22EDD2E7CD33EC3392D524814002
:1001300006E4FFFEFDFC22FCE4CFCECDCC24E05053
:100140001174FF80EDC3CC13CCCD13CDCE13CECF25
:1001500013CF0470F030D5DE02089EE9D2E7C93330
:10016000E833F892D5EDD2E7CD33EC33FC5002B250
:10017000D522EC30E7100FBF000C0EBE00080DBDFD
:1001800000040BEB6014A2D5EB13FCED92E7FD220B
:1001900074FFFCFDFEFF22E480F8A2D574FF13FC7F
:1001A0007D80E480EFF920E72824F950037907E403
:1001B000F42402FB18DBFDE624FB5014E9600DE497
:1001C000F618E604F6B40A08E4F6D9F57401F60A5E
:1001D00022C2D522ED33EC3392D5FA602AB4FF3334
:1001E000EDC2E77BFF60067A0179F9E4227A0279B1
:1001F0000220D5047A0179FD224E614E002B494E32
:1002000046002D494E4600E47A08F608DAFC7B00E9
:10021000740722E8C0E0ECC0E0EDC0E0EEC0E0EF23
:10022000C0E0EA75F010A4CAABF075F04DA42BFB4A
:10023000E435F0FCEA2410FAEB34C5FBEC34D9FCCD
:10024000EDC2E7FF75F056A4F42411C5F0F434C5EF
:100250008FF0A42AE5F03BE43CF620E714120505F4
:10026000D0E0FFD0E0FED0E0FDD0E0FC12004980FD
:1002700014F404120505D0E0FFD0E0FED0E0FDD07C
:10028000E0FC1203CFD0E0F8E6FAEDD2E7CD33EC94
:10029000332482FBE4C3CF33CFCE33CECD33CD3343
:1002A000DBF37B0775F00A846004F6081B0AE5F0AF
:1002B000F6088FF0740AA4FFACF08EF0740AA42C38
:1002C000FEACF050010C8DF0740AA42CFDE435F066
:1002D000F608DBDE740722020190E86480F8E93357
:1002E000E83360110460F0ED33EC337009E8FCE9A9
:1002F000FDEAFEEBFF220460DED3EB9FEA9EE99D60
:10030000E8C2E78CF0C2F795F0400CE8CCF8E9CDF4
:10031000F9EACEFAEBCFFB12015B85D0F0580470FE
:100320000320D5B3E80470075002B2D502019A92B7
:10033000D5EC0460F7E4CCC0E0C398F8603B9418B7
:100340006008400DD0E0FB020172E4FBFAC9FC80BA
:1003500028E830E406E4C9FBE4CAFCE830E305E43D
:10036000C9CACBFCE854076010F8C3E913F9EA13D3
:10037000FAEB13FBEC13FCD8F130F52FC3E49CFC33
:10038000EF9BFFEE9AFEED99FDD0E0FBEF4E4D4C5A
:10039000701222DB03020197EC2CFCEF33FFEE33EB
:1003A000FEED33FDED30E7EB020172EF2BFFEE3A8D
:1003B000FEED39FDD0E0FB50130BBB000302019AA8
:1003C000ED13FDEE13FEEF13FFEC13FC020172ECD4
:1003D0004D6011E8497017ED33EC3304600DE4FC17
:1003E000FFFEFD22E933E8330470F80201901201A8
:1003F0005B58046009E4CC248150062850090201AE
:100400009A284003020197C0E0EB4A7044B9800685
:10041000D0E0FB020186EF4E701CBD8008EBFFEAC6
:10042000FEE9FD80EBE98DF0A4FEE5F00204B8E9F9
:10043000CDF9EAFEEBFFEF89F0A4FCE5F0CE89F000
:10044000A42EFFE435F0CD89F0A42DFEE435F08034
:1004500067EF4E7005BD80D780C3EF8BF0A4ACF082
:10046000EE8BF0A42CFCE435F0F8EF8AF0A42CE538
:10047000F038FCE433CB8DF0A42CFCE5F03BF8EE37
:100480008AF0A42CFCE5F038F8E433CF89F0A42CF2
:10049000FCE5F038CF3400CE89F0A42FFFE5F03E24
:1004A000FEE433C98DF0A42EFEE5F039CD8AF0A428
:1004B0002FFFE5F03EFEE43DFD33D0E0FB50070B9F
:1004C000BB000F02019AEC2CFCEF33FFEE33FEED84
:1004D00033FD0201723F8000004120000042C8004D
:1004E00000447A0000461C400047C3500049742471
:1004F000004B1896804CBEBC205A0E1BCA6753C2D4
:100500001C749DC5AEFB60065407601C23231205B6
:1005100033EB5438600912051F12052E1203CFEC7D
:10052000F8EDF9EEFAEFCB22EB12052E80F15438FC
:1005300003241C9004D5FE93FC0EEE93FD0EEE9367
:100540000ECE93FF22E709F608DFFA8046E709F2AC
:1005500008DFFA803E88828C83E709F0A3DFFA8007
:1005600032E309F608DFFA8078E309F208DFFA805F
:100570007088828C83E309F0A3DFFA806489828A21
:1005800083E0A3F608DFFA805889828A83E0A3F229
:1005900008DFFA804C80D280FA80C680D4806980DF
:1005A000F28033801080A680EA809A80A880DA806A
:1005B000E280CA803389828A83ECFAE493A3C8C5B7
:1005C00082C8CCC583CCF0A3C8C582C8CCC583CCB7
:1005D000DFE9DEE7800D89828A83E493A3F608DFF2
:1005E000F9ECFAA9F0EDFB2289828A83ECFAE0A308
:1005F000C8C582C8CCC583CCF0A3C8C582C8CCC549
:1006000083CCDFEADEE880DB89828A83E493A3F28D
:1006100008DFF980CC88F0EF60010E4E60C388F0EF
:10062000ED2402B4040050B9F582EB2402B40400B6
:1006300050AF232345822390059573BB0106898221
:100640008A83E0225002E722BBFE02E32289828AEB
:1006500083E49322BB010CE58229F582E5833AF518
:1006600083E0225006E92582F8E622BBFE06E92552
:1006700082F8E222E58229F582E5833AF583E49364
:1006800022BB010689828A83F0225002F722BBFE38
:1006900001F322F8BB010DE58229F582E5833AF5E5
:1006A00083E8F0225006E92582C8F622BBFE05E960
:1006B0002582C8F222EF8DF0A4A8F0CF8CF0A428F8
:1006C000CE8DF0A42EFE22BC000BBE0029EF8DF0D3
:1006D00084FFADF022E4CCF875F008EF2FFFEE3385
:1006E000FEEC33FCEE9DEC984005FCEE9DFE0FD534
:1006F000F0E9E4CEFD22EDF8F5F0EE8420D21CFE08
:10070000ADF075F008EF2FFFED33FD400798500670
:10071000D5F0F222C398FD0FD5F0EA22BB0110E517
:100720008229F582E5833AF583E0F5F0A3E02250D3
:1007300009E92582F886F008E622BBFE0AE925824F
:10074000F8E2F5F008E222E5832AF583E993F5F073
:10075000A3E99322F8BB0111E58229F582E5833AEA
:10076000F583E8F0E5F0A3F0225009E92582C8F608
:1007700008A6F022BBFE09E92582C8F2E5F008F2DE
:1007800022E88FF0A4CC8BF0A42CFCE98EF0A42CF2
:10079000FC8AF0EDA42CFCEA8EF0A4CDA8F08BF03E
:1007A000A42DCC3825F0FDE98FF0A42CCD35F0FC3C
:1007B000EB8EF0A4FEA9F0EB8FF0A4CFC5F02ECD08
:1007C00039FEE43CFCEAA42DCE35F0FDE43CFC22ED
:1007D00075F008758200EF2FFFEE33FECD33CDCCE0
:1007E00033CCC58233C5829BED9AEC99E582984063
:1007F0000CF582EE9BFEED9AFDEC99FC0FD5F0D640
:10080000E4CEFBE4CDFAE4CCF9A88222B800C1B969
:100810000059BA002DEC8BF084CFCECDFCE5F0CBA7
:10082000F97818EF2FFFEE33FEED33FDEC33FCEBE0
:1008300033FB10D703994004EB99FB0FD8E5E4F99B
:10084000FA227818EF2FFFEE33FEED33FDEC33FC88
:10085000C933C910D7059BE99A4007EC9BFCE99A7C
:10086000F90FD8E0E4C9FAE4CCFB2275F010EF2FC1
:10087000FFEE33FEED33FDCC33CCC833C810D707C1
:100880009BEC9AE899400AED9BFDEC9AFCE899F8FC
:100890000FD5F0DAE4CDFBE4CCFAE4C8F922C3E4E6
:1008A0009FFFE49EFEE49DFDE49CFC22EB9FF5F09F
:1008B000EA9E42F0E99D42F0EC6480C8648098456D
:1008C000F022EB9FF5F0EA9E42F0E99D42F0E89CB1
:1008D00045F022E8600FECC313FCED13FDEE13FEB0
:1008E000EF13FFD8F122E86010ECA2E713FCED1340
:1008F000FDEE13FEEF13FFD8F022E8600FEFC333D5
:10090000FFEE33FEED33FDEC33FCD8F122ECF0A327
:10091000EDF0A3EEF0A3EFF022A8828583F0D08360
:10092000D082120930120930120930120930E473F2
:10093000E493A3C583C5F0C583C8C582C8F0A3C529
:1009400083C5F0C583C8C582C822A42582F582E587
:10095000F03583F58322FAE6FB0808E6F925F0F680
:1009600018E6CA3AF622BB010789828A83020A2363
:100970005005E9F8020A11BBFE05E9F8020A3589BB
:10098000828A83020A47BB011A89828A83D0F0D007
:10099000E0F8D0E0F9D0E0FAD0E0FBE8C0E0C0F049
:1009A000020A2C5016E9F8D083D082D0E0F9D0E0CA
:1009B000FAD0E0FBC082C083020A1ABBFE16E9F837
:1009C000D083D082D0E0F9D0E0FAD0E0FBC082C082
:1009D00083020A3E22D083D082F8E493701274011D
:1009E00093700DA3A393F8740193F5828883E47345
:1009F0007402936860EFA3A3A380DFC5F0F8A3E0BF
:100A000028F0C5F0F8E582158270021583E038F011
:100A100022E6FB08E6FA08E6F922EBF608EAF60811
:100A2000E9F622E0FBA3E0FAA3E0F922EBF0A3EA67
:100A3000F0A3E9F022E2FB08E2FA08E2F922EBF285
:100A400008EAF208E9F222E493FB740193FA7402D3
:100A500093F922E55D2449F8E6055D2278463007E2
:100A6000027849E475F00112095602063B2000EBBA
:100A70007F2ED2008018EF540F2490D43440D4FF3E
:100A800030040BEF24BFB41A0050032461FFE55E6D
:100A90006002155E0561E5617002056030070D7842
:100AA00046E475F001120956EF020681022D10741A
:100AB00003D2078003E4C207F55D8B468A47894865
:100AC000E4F55EF560F561E55E60077F20120A8E51
:100AD00080F5755FFFC201C200C202C203C205C237
:100AE00006C208120A5CFF700D3007057F00120A6B
:100AF0009FAF61AE6022B4255FC2D5C204120A5C0A
:100B0000FF24D0B40A00501A75F00A785E30D5057B
:100B100008B6FF0106C6A426F620D5047002D2034B
:100B200080D924CFB41A00EF5004C2E5D204020DDC
:100B30008CD20180C6D20080C0D20280BCD2D580C7
:100B4000BAD20580B47F20120A8E2002077401B544
:100B50005E0040F1120A53FF120A8E020AC7D20841
:100B6000D2068095120A53FB120A53FA120A53F95D
:100B70004A4B700679837A0E7BFF20022EE55E6079
:100B80002A7E008E8275830012065460060EEE6582
:100B90005F70F0C2D5EBC0E0EAC0E0E9C0E0EE1261
:100BA0000DECD0E0F9D0E0FAD0E0FB12063BFF609C
:100BB000AAEBC0E0EAC0E0E9C0E0120A8ED0E0246F
:100BC00001F9D0E03400FAD0E0FBE55F0460DCD549
:100BD0005FD98087D20280A2120DCF60F7E55F70E7
:100BE00001041201A5A95F600DE55F600914F55FBE
:100BF000120E76EF60F3EA30E702F404C3995077FF
:100C0000EAF4255F0430E701E404F55F800D120D7E
:100C1000CF60C1EA055F255F1201A5EA785CF63076
:100C2000E701E4255F04D55F0420050114120DECF3
:100C3000E4C0E0120E76785CE6601320E70714F655
:100C4000120A76802204F6D0E014C0E07F00120A77
:100C500076E55F6007120A6D155F800B30050312A1
:100C60000A6DD0E0020AC7D0E00480C5120DCF6043
:100C7000A0E55F041201A5785CEAF6E55F200502B5
:100C80006001042404120DEC74FF04C0E0120E761F
:100C9000120A76E55F2005026003120A6DD0E0B506
:100CA0005FE87F45120A80785CE67F2B30E7047F9F
:100CB0002DF404C0E0120A8ED0E075F00A84C0F072
:100CC000120A77D0E0120A77020AC77910800279F7
:100CD00008C206C2088008D2D5790A8004790AC2FF
:100CE000D5E55F047002F55FE4FAFDFEFF120A53DA
:100CF000FC7B08200113120A53FD7B1030000A12FE
:100D00000A53FE120A53FF7B20EC3382D592D55052
:100D100013C3E43000069FFFE49EFEE42001039D20
:100D2000FDE49CFCE4CBF8C201EC700CCFCECDCC42
:100D3000E824F8F870F38017C3EF33FFEE33FEEDCD
:100D400033FDEC33FCEB33FB994002FB0FD8E9EBAE
:100D5000300105F8D0E0C448B201C0E00AEC4D4EC5
:100D60004F78207B0070C2EAB55F0040BCC0E01243
:100D70000DEED0F0D0E0200104C4C0E0C4B201C048
:100D8000F0120A77D0F0D5F0EB020AC71209D50BA2
:100D900064530CCB580B354C0B31420CCF4F0CD756
:100DA000440CD7490B4A430CDD550C0E460C6C45E0
:100DB0000BD8470EA3500B392D0B3D2E0B602B0B80
:100DC00041230B5E200E8C2A0AF94800000B58E5DF
:100DD0005FB4FF03755F06120A53FC120A53FD123B
:100DE0000A53FE120A53FF78550201D4790AA2D59C
:100DF000200314300509B910020404B9080104A243
:100E0000D52006025001042002689202B55E00500F
:100E100034C0E07F203003197F30A20272067205D1
:100E2000500F120E45C202C206C205C2087F3080B2
:100E30000F300503E9C0E0120A8E300503D0E0F957
:100E4000D0E0B55ECC3005177F30B9100C120A8E99
:100E50007F583004077F788003B90803120A8E3068
:100E600002057F2D020A8E7F202008F87F2B2006A6
:100E7000F322920280CF7F00B4070050052455F87A
:100E8000E6FF22286E756C6C2900D201120A5330DD
:100E900001F8C201785E30D50108F6020AF92D503A
:100EA000434958120A532403B405004001E4900E4C
:100EB0009E93120A7F743A120A7FD203755E04026F
:100EC0000CCB122D378F268E258D248C23E53224D2
:100ED00060F536E53134F0F535E53034FFF534E5CD
:100EE0002F34FFF533AF36AE35AD34FCF8A905AA83
:100EF00006AB07120781780C1208E6A804A905AA18
:100F000006AB0790037DE0FEA3E0FFEE3395E0FD26
:100F1000FC120781780B1208E68F2A8E298D288C07
:100F2000279003B8E0FEA3E0FFEE3395E0FDFCABB5
:100F300036AA35A934A833120781780B1208E68F38
:100F40002E8E2D8D2C8C2BE52A252EF53AE5293574
:100F50002DF539E528352CF538E527352BF5379073
:100F600003B6E0FEA3E0FFEE3395E0FDFCE47B0476
:100F7000FAF9F8120781EF253AFFEE3539FEED3523
:100F800038FDEC3537FCEF2402FFE43EFEE43DFD86
:100F9000E43CFCE47B04FAF9F81229488F3E8E3DCC
:100FA0008D3C8C3B9003BAE0FEA3E0FFEE3395E06E
:100FB000FDFCAB36AA35A934A833120781780D128F
:100FC00008E68F2A8E298D288C27AF36AE35AD34B2
:100FD000AC33AB36AA35A934A833120781780C128A
:100FE00008E6A804A905AA06AB0790037BE0FEA3C8
:100FF000E0FFEE3395E0FDFC12078178101208E661
:101000008F2E8E2D8D2C8C2BE52A252EFFE5293554
:101010002DFEE528352CFDE527352BFCEF2402FFBE
:10102000E43EFEE43DFDE43CFC78021208E68F3A23
:101030008E398D388C37E4253AFFE5393480FEE46B
:101040003538FDE43537AB07AA06A905F89003BC8F
:10105000E0FEA3E0FFE4FCFD120781780F1208D345
:101060008F468E458D448C43C3E526953EFFE5258E
:10107000953DFEE524953CFDE523953BFCE47B5046
:101080007AC3F9F81207818F4A8E498D488C47E45C
:10109000FFFEFD7C80AB4AAA49A948A847C31208B5
:1010A000C25018E47F02FEFDFCA847120781AB4640
:1010B000AA45A944A84312080C801CAB46AA45A91E
:1010C00044A843AF4AAE49AD48AC4712080CE47B94
:1010D00002FAF9F81207818F428E418D408C3FAFA2
:1010E00042AE41AD40AC3F78081208E6C004C005EE
:1010F000C006C007AF42AE41AD40AC3F7808120811
:10110000E6D003D002D001D0001207818F2A8E29A9
:101110008D288C27E47FDE7E0BFDFCAB2AAA29A953
:1011200028A82712078178101208E68F2A8E298DA9
:10113000288C277F437EE37DFF7CFFAB42AA41A939
:1011400040A83F12078178101208E68F2E8E2D8D51
:101150002C8C2BE52A252EFFE529352DFEE528359B
:101160002CFDE527352BFCEF24CFFFEE340EFEE4FB
:101170003DFDE43CFC78041208E6EF2542F50BEE59
:101180003541F50AED3540F509EC353FF508AF0B73
:10119000AE0AAD09FC22534243283531293B444372
:1011A000563136283237352C3136332C274F4E27DF
:1011B0002C3136293B00534243283531293B4443E7
:1011C000563136283237352C3136332C274F4646A8
:1011D000272C3136293B00534243283436293B44DF
:1011E00043563136283237352C3232302C274F4E89
:1011F000272C3136293B00534243283436293B44BF
:1012000043563136283237352C3232302C274F4670
:1012100046272C3136293B00534243283233293BA1
:101220004443563136283137382C3232352C27009A
:10123000B7D6D6D3272C3136293B0041542B43490E
:101240005053454E443D312C25640D0A0041542B2A
:1012500043495053454E443D322C25640D0A0064E9
:101260006F6F724F6E006F70656E0D0A006C69676C
:1012700068744F6E006C69676874436C6F736500C7
:10128000636C6F73650D0A00636C61737300636850
:10129000616E67650041542B43495053454E443DB0
:1012A000302C25640D0A0041542B4349504D5558AC
:1012B0003D310D0A0041542B43495053544152547F
:1012C0003D302C22544350222C223230332E3139DF
:1012D000352E3133342E313135222C373030300D2C
:1012E0000A0041542B4349505345525645523D3113
:1012F0002C383038300D0A00686168613132330DA6
:101300000A00434C52283136293B4449522833299C
:101310003B4653494D4728323039373135322C302E
:101320002C302C3332302C3234302C302900000059
:1013300000000000000000000000000000000000AD
:10134000000000000000000000000000000000009D
:10135000000000000000000000000000000000008D
:10136000000000000000000000000000000000007D
:10137000000000000000000000000000000000006D
:101380000000000000000000008F268E258D248CB8
:10139000237B807A5179017800122948EF2401F5E6
:1013A0002BE43EF52AE43DF529E43CF5287B807AE0
:1013B0005179017800AF26AE25AD24AC231229481F
:1013C000AC00AD01AE02AF038F2F8E2E8D2D8C2C75
:1013D000E52B24FCFFE52A34FFFEE52934FFFDE57B
:1013E0002834FFFCE47B07FAF9F81229489001D968
:1013F000EBF09000037407F0A374E5F0122C00AB3F
:1014000007E52B2493FFE52A34FEFEE52934FFFD92
:10141000E52834FFFCC3EF9BFFEE9400FEED940043
:10142000FDEC9400FCE4FBFAF9F8C31208AC50326E
:10143000900004E004F07006900003E004F0122C29
:1014400000EF246DFFE43401FAC3E52B9FF52BE593
:101450002A9AF52AE5299400F529E5289400F5282B
:10146000809A122C00EF9001CE6005741DF080036D
:10147000741CF09000027401F0E4F52774CD252768
:10148000F582E43401F583E0FBC3E52B9BFFE52AFD
:101490009400FEE5299400FDE5289400FCE4FBFAA5
:1014A000F9F8C31208AC503074CD2527F582E43426
:1014B00001F583E0FBC3E52B9BF52BE52A9AF52A82
:1014C000E52999F529E5289400F528900002E00423
:1014D000F00527E527B40CA49001C7E52BF0E47BC9
:1014E000107A0EF9F8AF2FAE2EAD2DAC2C12294884
:1014F0009001C8EFF0AF2FAE2EAD2DAC2CE47B10D9
:101500007A0EF9F8122948AC00AD01AE02AF038F94
:101510002F8E2E8D2D8C2CE47B3CFAF9F812294865
:10152000900001EFF0AF2FAE2EAD2DAC2CE47B3C44
:10153000FAF9F8122948AC00AD01AE02AF038F2FC3
:101540008E2E8D2D8C2CE47B3CFAF9F812294890D4
:101550000000EBF0228F268E258D248C23E4752C41
:1015600001F52BF52AF529E527B4FF39752701ABDD
:101570002CAA2BA92AA829AF26AE25AD24AC23126C
:101580002948EC4D4E4F60740527AF2CAE2BAD2A89
:10159000AC29E47B0AFAF9F81207818F2C8E2B8D87
:1015A0002A8C2980CAE4F528AF27EF3395E0FEC3E3
:1015B000E5289FEE6480F8748098501DAF2CAE2B08
:1015C000AD2AAC29E47B0AFAF9F81207818F2C8E38
:1015D0002B8D2A8C29052880CFAF26AE25AD24ACD3
:1015E00023AB2CAA2BA92AA829122948AC00AD01AB
:1015F000AE02AF038F268E258D248C23E4F528AF11
:101600002CAE2BAD2AAC298061AF2CAE2BAD2AAC11
:1016100029EC4D4E4F6065AB2CAA2BA92AA829AF07
:1016200026AE25AD24AC23122948EF2430FFAE2886
:10163000052874A82EF582E43402F583EFF0AF2676
:10164000AE25AD24AC23AB2CAA2BA92AA82912299C
:1016500048AC00AD01AE02AF038F268E258D248CE1
:1016600023AF2CAE2BAD2AAC29E47B0AFAF9F81291
:1016700029488F2C8E2B8D2A8C29808D74A82528A3
:10168000F582E43402F583E4F07B017A0279A82242
:10169000C0E0C0F0C083C082C0D075D000C000C020
:1016A00001C002C003C004C005C006C007758CDCC1
:1016B000758A2A9001C9E0FCA3E0FDA3E0FEA3E047
:1016C000FFE4FAF9F8EF2401FFEA3EFEE93DFDE808
:1016D0003CFC9001C912090DE47B64F89001C9E05B
:1016E000FCA3E0FDA3E0FEA3E0FF122948AC00AD9F
:1016F00001AE02AF03EC4D4E4F7053B2909001DC3F
:10170000E0FCA3E0FDA3E0FEA3E0FFE4FAF9F8EFBC
:101710002401FFEA3EFEE93DFDE83CFC9001DC12BD
:10172000090DD20ED39001DBE094009001DAE09431
:1017300000400CA3E024FFF09001DAE034FFF090C9
:1017400001DAE07004A3E064017003122EEAE47B86
:101750002C7A01F9F89001C9E0FCA3E0FDA3E0FEBA
:10176000A3E0FF122948AC00AD01AE02AF03EC4D7F
:101770004E4F7002D20F7F407E427D0F7C00900161
:10178000C9E0F8A3E0F9A3E0FAA3E0FBC31208ACB8
:10179000400A9001C912091900000000D007D006C4
:1017A000D005D004D003D002D001D000D0D0D08258
:1017B000D083D0F0D0E0328B238A2489257526FF90
:1017C0007527FFE4F529AB23AA24A925852982756D
:1017D000830012065470030218C7643B60030218AA
:1017E000B0E526B4FF09E52824D0F5260218B0E5B7
:1017F00027F460030218B00529E52824D0F527E472
:10180000F52AAB23AA24A92585298275830012060F
:1018100054FF643B6053EF6050AF2905298F8275F8
:101820008300120654FFE526FD3395E0FC90000589
:1018300075F05AED12094AEC75F05AA42583F58328
:10184000E527FD3395E0FC75F012ED12094AEC75C1
:10185000F012A42583F583AE2A052AE5822EF582AF
:10186000E43583F583EFF08099AF26EF3395E0FE02
:1018700090000575F05AEF12094AEE75F05AA4254A
:1018800083F583AF27EF3395E0FE75F012EF120971
:101890004AEE75F012A42583F583AF2A052AE58266
:1018A0002FF582E43583F583E4F07527FF7526FF75
:1018B000AB23AA24A925AF2905298F82758300129D
:1018C0000654F5280217C6228F278E268D258C24D4
:1018D0007BA07A8679017800122948EF24309003A2
:1018E0007AF0AF27AE26AD25AC247BA07A867901AD
:1018F0007800122948AC00AD01AE02AF038F278EED
:10190000268D258C24E47B107A27F9F8122948EFDC
:101910002430900382F0AF27AE26AD25AC24E47BC3
:10192000107A27F9F8122948AC00AD01AE02AF03D6
:101930008F278E268D258C24E47BE87A03F9F81214
:101940002948EF243090037FF0AF27AE26AD25ACB9
:1019500024E47BE87A03F9F8122948AC00AD01AE23
:1019600002AF038F278E268D258C24E47B64FAF941
:10197000F8122948EF2430900380F0AF27AE26AD4F
:1019800025AC24E47B64FAF9F8122948AC00AD01D7
:10199000AE02AF038F278E268D258C24E47B0AFAB6
:1019A000F9F8122948EF2430900381F0AF27AE26D2
:1019B000AD25AC24E47B0AFAF9F8122948AC00AD55
:1019C00001AE02AF038F278E268D258C24EF2430A5
:1019D00090038CF022EF4E7003021AD89003C4E0FB
:1019E0007002A3E07003021AD8CDEFCDCCEECCED9F
:1019F00024FCFDEC34FFFC752B03752CC2852C8276
:101A0000852B83E0FAA3E08A2DF52E452D6011D3B6
:101A1000E52E9FE52D9E5008852D2B852E2C80DDF3
:101A2000E52E452D604A8D828C83A3A3E0FAA3E0C6
:101A30002FFFEA3EFEEF652E7003EE652D703185B7
:101A40002E82852D83A3A3E0FEA3E02404FFE43EC1
:101A50008D828C83A3A38FF01209FB852E82852DA6
:101A600083E0FFA3E08D828C83CFF0A3EFF0800BA7
:101A70008D828C83E52DF0A3E52EF0852C82852BBD
:101A800083A3A3E0FEA3E0252CFFEE352BFEEF247D
:101A900004FFE43EFEEF6D7002EE6C70308D828CC0
:101AA00083A3A3E0FEA3E02404FFE43E852C82850B
:101AB0002B83A3A38FF01209FB8D828C83E0FFA3FD
:101AC000E0852C82852B83CFF0A3EFF022852C823A
:101AD000852B83ECF0A3EDF0228515248516258552
:101AE0001726AB24AA25A926120966E94A4B7003DA
:101AF000021B80AB24AA25A9261209668B248A25FD
:101B00008926900003120654FF20E0D6AB24AA25B4
:101B1000A926900004120654FE9001C8E0B506C242
:101B2000900005120654FE900001E0B506B4900046
:101B300006120654FE900000E0B506A6EF540670AB
:101B4000115390FB1200209001DAE4F0A3740AF024
:101B50008090AB24AA25A9269000031206545406AF
:101B600064026003021AE29001D9E0C394054003C5
:101B7000021AE25390FBA3E4F0A37403F0021AE20A
:101B8000E4F523E5239020B793FF9001C8E06F7040
:101B90003DE5239020BC93FF900001E06F702F90F3
:101BA0000000E070299001D9E0FFC39405501F7533
:101BB000F05AEFA42405F582E5F03400F58375F0C2
:101BC00012E52312094AE060057F02122A8C0523E0
:101BD000E523C3940540AC22122EE67BFF7A2079E0
:101BE000411227E49001C8E0FFE4FCFDFE7527FFE9
:101BF0001215551227E47BFF7A2079391227E490D9
:101C00000001E0FFE4FCFDFE7527021215551227C6
:101C1000E47BFF7A2079391227E4900000E0FFE4AA
:101C2000FCFDFE7527021215551227E47BFF7A2072
:101C300079571227E47BFF7A20795E1227E490001F
:101C400002E0FFE4FCFDFE7527FF1215551227E4A4
:101C50007BFF7A20796C1227E49001C7E0FFE4FC57
:101C6000FDFE7527FF1215551227E47BFF7A2079B8
:101C70006F1227E47BFF7A2079781227E49001D94C
:101C8000E075F007A42486F9742035F0FA7BFF1282
:101C900027E47BFF7A2079571227E4022EBB122D0E
:101CA000BB8F268E258D248C239003C0E0FEA3E0FD
:101CB000FBC3E5269BFBE5259EFAE5249400F9E5A8
:101CC000239400F89003BEE0FEA3E0FFE4FCFD12C5
:101CD0000781780F1208E68F2A8E298D288C27908D
:101CE000038FE0FEA3E0FFEE3395E0FDFC780B12DE
:101CF00008FAC004C005C006C007A3E0FEA3E0FFC9
:101D0000EE3395E0FDFCEF252AFBEE3529FAED35A3
:101D100028F9EC3527F8D007D006D005D0041229D1
:101D2000488F2E8E2D8D2C8C2BE52A252EF532E515
:101D300029352DF531E528352CF530E527352BF5FE
:101D40002FE5322408FFE43531FEE43530FDE4357B
:101D50002FFC78041208E68F0F8E0E8D0D8C0C224E
:101D60007526FF75271275285FE51F24FEF5297576
:101D70002A067B017A037916122498500BB2977BBE
:101D8000FF7A1279660225887526FF752712752855
:101D90006DE51F24FEF529752A077B017A03791664
:101DA000122498500AB2977BFF7A127966802575C3
:101DB00026FF752712752875E51F24FEF529752A5B
:101DC0000A7B017A037916122498500BB2977BFF95
:101DD0007A1279800225F67526FF752712752888F4
:101DE000E51F24FEF529752A057B017A0379161271
:101DF0002498500C7B017A0379161217B7B29722F8
:101E00007526FF75271275288EE51F24FEF52975A6
:101E10002A067B017A0379161224985002B297227F
:101E2000438901758CDC758A2AD2AFD2A9D28CD2B3
:101E3000AF7E017FE07DC87C00122AC87F097E004A
:101E4000121F8AAA06A9077B018B158A168917908B
:101E50000007E4F5F01207548B188A19891A1B7AC7
:101E6000007900C003C002C001AB18AA19A91A1258
:101E70000986E4F5267B0AFD7F0C122306E4F5268D
:101E8000FB7D0F7F0D122306E4F526FB7D0F7F0EF1
:101E90001223067F027E00122391E4FFE4FE75F018
:101EA0005AEFA42405F582E5F03400F58375F012AD
:101EB000EE12094AE4F00EBE05E40FBF05DE7BFF1B
:101EC0007A2079261217B79001DCE0FCA3E0FDA38D
:101ED000E0FEA3E0FF021389C10AC10DC10BC10CD2
:101EE000C109420314000A011F000162004802A850
:101EF000313009313131000001140049038331319F
:101F0000313131310D0A00602303930000000000DD
:101F100000000000000000000000000000000000C1
:101F2000000000000000000000000000000044016C
:101F3000C9000000004401DC00BE48764C01CD1F02
:101F40001C1F1E1F1E1F1F1E1F1E1F42000307E512
:101F5000410002054101C7184101C80C41000100C0
:101F6000410000004101D900C10EC10F4201DA0059
:101F700000016303041B03040506C110C1114803DB
:101F8000C20000000000000000008E2A8F2B7E039C
:101F90007FC28F828E83E0FCA3E0FD4C7003FEFFC6
:101FA000228D828C83A3A3E0FAA3E0FBC3952BEAE6
:101FB000952A5008CEECCECFEDCF80D6C3EB952B33
:101FC000F52DEA952AF52CC3E52D9410E52C940007
:101FD00050198D828C83E0FBA3E08F828E83CBF03F
:101FE000A3EBF0ED2404FFE43CFE2274FC252DF568
:101FF0002D74FF352CF52C8D828C83A3A3F0A3E5E3
:102000002DF0ED2404FFE43CFEEF252DFFEE352CF2
:10201000FE8F82F583A3A3E52AF0A3E52BF0EF243E
:1020200004FFE43EFE22313B303BD4CBBFD87CB230
:10203000A9D1A7C2A5413036003A002020000D0AE0
:1020400000534243283531293B4443563234283823
:10205000302C32352C2700272C3136293B004443C5
:102060005632342838302C35302C2700D4C200C8E2
:10207000D5272C3136293B00444356323428383595
:102080002C37352C2700D0C7C6DAD2BB00D0C7C644
:10209000DAB6FE00D0C7C6DAC8FD00D0C7C6DACBB4
:1020A000C400D0C7C6DACEE500D0C7C6DAC1F90091
:1020B000D0C7C6DACCEC0007090E10123232140079
:1020C0003212298C7549FF754A22754B70754C0187
:1020D000754D03754E837B017A037993120AAF1213
:1020E00029CE7549FF754A22754B74754C01754DA3
:1020F00003754E93754F017550037551837B017ABB
:10210000037993120AAF122A107549FF754A227596
:102110004B74754C01754D03754E93754F01755099
:10212000037551837B017A037993120AAF1228BE9B
:102130007549FF754A22754B74754C01754D0375D1
:102140004E93754F017550037551837B017A037966
:1021500093120AAF7B017A037993227FAA12290C8A
:102160009003B6EEF0A3EFF07FAC12290C9003B809
:10217000EEF0A3EFF07FAE12290C9003BAEEF0A3BD
:10218000EFF07FB012290C9003BCEEF0A3EFF07FCC
:10219000B212290C9003BEEEF0A3EFF07FB4122927
:1021A0000C9003C0EEF0A3EFF07FB612290C900361
:1021B0007BEEF0A3EFF07FB812290C90037DEEF0D8
:1021C000A3EFF07FBA12290C90038DEEF0A3EFF08D
:1021D0007FBC12290C90038FEEF0A3EFF07FBE12AC
:1021E000290C900391EEF0A3EFF0225342432831E3
:1021F000293B4443563234283234352C35302C2791
:10220000002E00A1E6272C3136293B0053424328FB
:102210003439293B4443563136283137302C313656
:10222000342C27004B5061272C3136293B00534278
:1022300043283133293B4443563136283130332C3F
:102240003230302C27004C757820272C3136293B32
:1022500000534243283134293B4443563234283119
:10226000382C3230302C270025272C3136293B00E2
:1022700025733B00257325733B00787FE4F6D8FD7A
:102280007581630222C1022513E493A3F8E493A3AA
:102290004003F68001F208DFF48029E493A3F854A8
:1022A00007240CC8C333C4540F4420C8834004F42B
:1022B00056800146F6DFE4800B010204081020403E
:1022C00080901ED8E47E019360BCA3FF543F30E5AC
:1022D00009541FFEE493A360010ECF54C025E060B3
:1022E000A840B8E493A3FAE493A3F8E493A3C8C581
:1022F00082C8CAC583CAF0A3C8C582C8CAC583CA72
:10230000DFE9DEE780BE8F238D248B257F097E00E9
:10231000121F8AAA06A9077527018A288929AB27CF
:10232000C003C002C001AB18AA19A91A120986ABD2
:1023300027AA28A929900004E523120693900005F6
:10234000E524120693900006E525120693900003FB
:10235000E5261206937B007A007900C003C002C014
:1023600001AB27AA28A929120986AB18AA19A91A0C
:1023700090000712071C2401FFE435F0AB27AA28C0
:10238000A9299000078FF01207548B188A19891A0F
:10239000228E238F24851525851626851727AB25A4
:1023A000AA26A927120966E94A4B606DAB25AA2621
:1023B000A92712096690000712071C65247004E51E
:1023C000F0652370438B288A29892AE518851983AB
:1023D000851A826B7008E965827003EA658370096B
:1023E00085251885261985271AAB28AA29A92A1216
:1023F0000966C003C002C001AB25AA26A92712099D
:1024000086AE29AF2A0219D5AB25AA26A92712091B
:10241000668B258A268927808522E4FCC2A2122E9B
:10242000AED2A21200037F5030A206AE071FEE709C
:10243000F7EF700280327FFA20A206AE071FEE701F
:10244000F7EF700280227FFA30A206AE071FEE700F
:10245000F7EF70028012E4FEE4FD7F9620A206AB47
:10246000071FEB70F7EF7004D2A2FF22E4FF30A247
:10247000040FEF70F9EC25E0FCEFD3941E40010C43
:102480000DBD08D6EE70028C140EBE05CB120003F3
:10249000120003D2A2AF14228B238A248925E4F5EB
:1024A0002BF52CC3E52A6480F8E529648098500256
:1024B000C322E4F52BC3E529952AD36480F8E52BE4
:1024C000648098504CE4F52CAF2AEF3395E0FEC3BE
:1024D000E52C9FEE6480F8748098502AE52C252B1B
:1024E000F582E433F583AB23AA24A925120654FF11
:1024F000AB26AA27A928852C82758300120654B51D
:102500000704052C80C2E52CB52A02D322052B80B6
:10251000A4C3227FA07E0F122C8C121E20122E4BE1
:10252000122C5F120026122EE67BFF7A137902121C
:1025300027E4122EBB7FE87E03122C8C7BFF7A13DC
:10254000792E1227E4122EBBE4F51F12215B120034
:102550003E122D9CC297120020300E08122B3C1206
:102560001BD8C20E300F05122D9CC20F300AEA1282
:102570001D60AF1F051F74162FF582E43403F58329
:10258000E4F0F51FC20A80D18B238A248925E4F563
:1025900026F52778287C00FD7BFF7A13792FFE7FB4
:1025A0001E120615AB23AA24A9250527E527AE266A
:1025B0007002052614F5828E8312065470E6E52714
:1025C0001527700215267549FF754A12754B3B8514
:1025D000264C85274D7B007A007928120AAF7B00B4
:1025E0007A007928122A50122E72AB23AA24A92528
:1025F000122A50022E728B238A248925E4F526F5AF
:102600002778287C00FD7BFF7A13794DFE7F1E1210
:102610000615AB23AA24A9250527E527AE267002B7
:10262000052614F5828E8312065470E6E5271527D9
:10263000700215267549FF754A12754B4D85264C5B
:1026400085274D7B007A007928120AAF7B007A003B
:102650007928122A50122E72AB23AA24A925122AF5
:1026600050022E728B238A248925E4F526F52778DB
:10267000287C00FD7BFF7A13796BFE7F1E12061506
:10268000AB23AA24A9250527E527AE267002052637
:1026900014F5828E8312065470E6E5271527700222
:1026A00015267549FF754A12754B9585264C852769
:1026B0004D7B007A007928120AAF7B007A007928D6
:1026C000122A50122E72AB23AA24A925122A5002D4
:1026D0002E72C0E0C083C082C0D075D000C006C0DA
:1026E00007C298AF99200A46E51FC394644005C20B
:1026F0000D751F00BF2C027F2EAE1F051F74162EF6
:10270000F582E43403F583EFF0300D15BF0A0BE5D5
:102710001FD394024004D20A8003751F00C20D80AB
:102720000DBF0D04D20D8006BF0A03751F00D00730
:10273000D006D0D0D082D083D0E032122E917F4705
:10274000122D5BE4F524122D7C74252524F8A607B0
:10275000E524B40304D2008002C200122EA0052496
:10276000E524C3940340DF122EC77F057E00122CA0
:10277000B8AF25EFFE7C00E42526FFEC3EFEAD075A
:10278000FC1200EB7B9A7A997999783F1200498F75
:10279000138E128D118C1022C0E0C0F0C083C08255
:1027A000C0D075D000C000C001C002C003C004C0CA
:1027B00005C006C0077FFF122DF1EF600CE4FF1289
:1027C0002DF1E59BB40A02C20BD007D006D005D08C
:1027D00004D003D002D001D000D0D0D082D083D09A
:1027E000F0D0E0328B248A258926E4FFFEAB24AAB0
:1027F00025A926AD060E8D8275830012065470ED54
:10280000E4FFEE14FDEFC39D5022AB24AA25A926B8
:102810008F82758300120654FDAC62056274B02C81
:10282000F582E43402F583EDF00F80D622122E619A
:1028300012273B1228BE122EE67BFF7A22792E1237
:1028400027E4AF23052374832FF582E43403F58353
:10285000E0643060ED1523E4900389F07483252350
:10286000F9E43403FA7B011227E47BFF7A227946EC
:102870001227E4022EBB121C9E12298C122EE67B1C
:10288000FF7A2179EB1227E47B017A0379867D01B7
:10289000122BA07B017A0379877D01122BA07BFF8D
:1028A0007A2279011227E47B017A0379887D01126B
:1028B0002BA07BFF7A2279031227E4022EBBAF13F1
:1028C000AE12AD11AC101201241218C890038CE0A6
:1028D000900388F0900381E0900387F0900380E0FC
:1028E000900386F090037FE0900385F0900382E0F0
:1028F000900384F090037AE0900383F07B017A03E5
:102900007983227F0A7E00122CB87FF68F4B122E1D
:10291000917FEE122D5BAF4B122D5B122E917FEF4C
:10292000122D5B122D7C8F4CC200122EA0122D7C1A
:102930008F4DD200122EA0122EC77F057E00122CC2
:10294000B8E54CFEE54DFF22C2D5E830E70FB2D521
:10295000E4C39BFBE49AFAE499F9E498F8EC30E7D5
:1029600017B2D512297E12080CE4C39BFBE49AFA35
:10297000E499F9E498F8800312080C30D50DE4C30B
:102980009FFFE49EFEE49DFDE49CFC22AF0FAE0E93
:10299000AD0DAC0C1218C890038CE0900388F09039
:1029A0000381E0900387F0900380E0900386F0902D
:1029B000037FE0900385F0900382E0900384F09021
:1029C000037AE0900383F07B017A03798322AF0BD3
:1029D000AE0AAD09AC081218C890038CE0900388C9
:1029E000F0900381E0900387F0900380E0900386ED
:1029F000F090037FE0900385F0900382E0900384E1
:102A0000F090037AE0900383F07B017A03798322CC
:102A1000AF14E4FCFDFE1218C890038CE09003880C
:102A2000F0900381E0900387F0900380E0900386AC
:102A3000F090037FE0900385F0900382E0900384A0
:102A4000F090037AE0900383F07B017A037983228C
:102A50008B468A478948E4FFAB46AA47A948AE0798
:102A60000F8E8275830012065470ED1FE4FEEEC3D4
:102A70009F5018AB46AA47A9488E8275830012065C
:102A800054F5993099FDC2990E80E322A907E9FD1A
:102A90003395E0FCD3ED95637480F86C984007E9BA
:102AA0009563F5278008C3E99563240AF527AF27C6
:102AB0001527EF6010C2827F467E00122CE4D2827E
:102AC000122CE480E9896322EF4E7008FE7F01ED4D
:102AD0001D70011C9003C2EEF0A3EFF0A3ECF0A375
:102AE000EDF09003C2E0FEA3E0FFF5828E83E4F0F8
:102AF000A3F0ED24FCFDEC34FF8F828E83A3A3F0C2
:102B0000A3EDF022120EC21229CE122EE67BFF7A1E
:102B100022790C1227E4900386E0A3F090038674D8
:102B20002EF0E4900388F07B017A0379831227E486
:102B30007BFF7A2279241227E4022EBB900000E06A
:102B4000C3943B5002800F900001E0C3943B500BB4
:102B5000E4900000F0A3E004F080119001DCE0FCC0
:102B6000A3E0FDA3E0FEA3E0FF121389021AD9E45B
:102B7000FEFF122DDAEEC39562501D74B02EF58261
:102B8000E43402F583E0F59B7FFF122E08EF60F836
:102B9000E4FF122E080E80DD7F01122DDA022EE6F0
:102BA0008B238A248925E4FFEFC39D5022AB23AAFF
:102BB00024A9258F82758300120654FEAC6205623B
:102BC00074B02CF582E43402F583EEF00F80D92244
:102BD00012241AEF6029122A10122EE67BFF7A22A5
:102BE00079511227E4E4900389F07B017A03798715
:102BF0001227E47BFF7A2279681227E4122EBB2287
:102C0000900003E0FEA3E0FFAB07AA06EB540370BD
:102C10000AFC7D641206C7ED4C700FAE02AF037C58
:102C2000017D901206C7ED4C70037F01227F0022C8
:102C3000122EE67BFF7A1279181227E4900314E033
:102C4000FEA3E0FFEE3395E0FDFC7527FF1215555E
:102C50001227E47BFF7A1279301227E4022EBB7B25
:102C6000FF7A1279A7122A50122E727BFF7A1279FC
:102C7000B5122A50122E727BFF7A1279E2122A5074
:102C8000122E727BFF7A1279F8022664E4FDFCC3EF
:102C9000ED9FEC9E5021E4FBFA900000A3E58264D6
:102CA0005F458370F70BBB00010AEB640A4A70E9C9
:102CB0000DBD00010C80D822E4FDFCC3ED9FEC9E0D
:102CC0005021E4FBFA900000A3E582645F45837025
:102CD000F70BBB00010AEB640A4A70E90DBD000165
:102CE0000C80D822E4FDFCC3ED9FEC9E5021E4FB58
:102CF000FA900000A3E582645F458370F70BBB0088
:102D0000010AEB640A4A70E90DBD00010C80D8226B
:102D1000EFB40A07740D122D1B740A309811A8998C
:102D2000B8130CC2983098FDA899C298B811F63023
:102D300099FDC299F599227F007E007D007C0012EA
:102D40002E917FEE122D5B7FF4122D5B7F34122DBE
:102D50005B122EC7122903E4FDFC22AE07E4FDEE50
:102D600025E0FEC2A1122E8992A0122E89D2A112B4
:102D70002E890DBD08E9122E82022ED3122E82E476
:102D8000FDD2A1122E89EE25E0FFA2A0E4334FFE72
:102D9000C2A1122E890DBD08E8AF062212287612B4
:102DA0002B0412282D122BD0122E1F122E35122C6E
:102DB00030200A061220C112266422122E917FEEC4
:102DC000122D5B7FF4122D5B7F2E122D5B122EC70E
:102DD000122903EE3395E0FDFC22BFFF06E5AF5458
:102DE00001FF22EF600543AF01800353AFFE7F0177
:102DF00022BFFF06E59A5401FF22EF6005439A01C6
:102E00008003539AFE7F0122BFFF06E59A5402FF1A
:102E100022EF6005439A028003539AFD7F0122123C
:102E20002EE67BFF300C067A11799680047A1179B0
:102E3000B6122EDD22122EE67BFF300C067A1179B7
:102E4000D780047A1179F7122EDD22438920758DFF
:102E5000FD758BFDD28ED29CC29FD29ED2AFD2ACDA
:102E6000227F0112000E7F1012000E7FC87E00022A
:102E70002CB8300AFDC20AE4F51F7FF47E01122C43
:102E80008C22C2A1122E89D2A00000007F0ADFFE90
:102E900022D2A0D2A1122E89C2A0122E89C2A122B2
:102EA000A20092A0D2A1122E89C2A1022E897F0176
:102EB0007ED87D23DDFEDEFCDFFA227BFF7A0079FF
:102EC000081227E4022B6FC2A0D2A1122E89D2A031
:102ED000022E89D2A1122E89C2A1022E89122EE6BB
:0D2EE0001227E4022EBBE4F56222D280220C
:00000001FF
