:09000000021668D2022002FD2262
:10000B00020D758F2612201F7F46121F18AF261266
:10001B001F180220550D0A00021911759A50E4F5AC
:10002B00A2F587F5B5759CFD758E10D2AFF5B87539
:10003B00AF01227F50DFFE22021A2602019AEC5DED
:10004B00046005E85904700302019012015B580427
:10005B0060F6EC4860F2EC7004FDFEFF22C860DB3A
:10006B002481C85009C3986002500602019798502A
:10007B00CAF582E9294B4A7005AB8202018675F0FD
:10008B00007C1A7880C3EF9BEE9AED99400DC3EF7D
:10009B009BFFEE9AFEED99FDE842F0DC23ACF0D02D
:1000AB00E0FFD0E0FED0E0FDAB8220E7101BEB6061
:1000BB00BAEC2CFCEF33FFEE33FEED33FD02017295
:1000CB00E803F830E705C0F075F000EF2FFFEE33D3
:1000DB00FEED33FD40B830E7C280AA75F020800EEC
:1000EB0075F010800575F0087D007E007F0033925F
:1000FB00D530D5031204D3EC334010EF33FFEE337E
:10010B00FEED33FDEC33FCD5F0ED22E5F0247EA2C1
:10011B00D513CC92E7CDCEFF22EDD2E7CD33EC3326
:10012B0092D524814006E4FFFEFDFC22FCE4CFCEF9
:10013B00CDCC24E0501174FF80EDC3CC13CCCD1388
:10014B00CDCE13CECF13CF0470F030D5DE0204D357
:10015B00E9D2E7C933E833F892D5EDD2E7CD33ECEA
:10016B0033FC5002B2D522EC30E7100FBF000C0E5F
:10017B00BE00080DBD00040BEB6014A2D5EB13FC05
:10018B00ED92E7FD2274FFFCFDFEFF22E480F8A256
:10019B00D574FF13FC7D80E480EFE709F608DFFAE6
:1001AB008046E709F208DFFA803E88828C83E709F4
:1001BB00F0A3DFFA8032E309F608DFFA8078E3096F
:1001CB00F208DFFA807088828C83E309F0A3DFFAF0
:1001DB00806489828A83E0A3F608DFFA80588982DB
:1001EB008A83E0A3F208DFFA804C80D280FA80C6C3
:1001FB0080D4806980F28033801080A680EA809A58
:10020B0080A880DA80E280CA803389828A83ECFA04
:10021B00E493A3C8C582C8CCC583CCF0A3C8C58260
:10022B00C8CCC583CCDFE9DEE7800D89828A83E405
:10023B0093A3F608DFF9ECFAA9F0EDFB2289828A89
:10024B0083ECFAE0A3C8C582C8CCC583CCF0A3C8A5
:10025B00C582C8CCC583CCDFEADEE880DB89828A25
:10026B0083E493A3F208DFF980CC88F0EF60010EF2
:10027B004E60C388F0ED2402B4040050B9F582EB54
:10028B002402B4040050AF23234582239001F5735D
:10029B00BB010CE58229F582E5833AF583E0225018
:1002AB0006E92582F8E622BBFE06E92582F8E22262
:1002BB00E58229F582E5833AF583E49322F8BB01C5
:1002CB000DE58229F582E5833AF583E8F0225006A5
:1002DB00E92582C8F622BBFE05E92582C8F222EF8A
:1002EB008DF0A4A8F0CF8CF0A428CE8DF0A42EFE18
:1002FB0022BC000BBE0029EF8DF084FFADF022E491
:10030B00CCF875F008EF2FFFEE33FEEC33FCEE9DCF
:10031B00EC984005FCEE9DFE0FD5F0E9E4CEFD22F6
:10032B00EDF8F5F0EE8420D21CFEADF075F008EF81
:10033B002FFFED33FD4007985006D5F0F222C398FE
:10034B00FD0FD5F0EA22BB0110E58229F582E5838A
:10035B003AF583E0F5F0A3E0225009E92582F8860F
:10036B00F008E622BBFE0AE92582F8E2F5F008E286
:10037B0022E5832AF583E993F5F0A3E99322F8BBF1
:10038B000111E58229F582E5833AF583E8F0E5F082
:10039B00A3F0225009E92582C8F608A6F022BBFE7D
:1003AB0009E92582C8F2E5F008F222E88FF0A4CC27
:1003BB008BF0A42CFCE98EF0A42CFC8AF0EDA42C81
:1003CB00FCEA8EF0A4CDA8F08BF0A42DCC3825F050
:1003DB00FDE98FF0A42CCD35F0FCEB8EF0A4FEA93B
:1003EB00F0EB8FF0A4CFC5F02ECD39FEE43CFCEA48
:1003FB00A42DCE35F0FDE43CFC2275F0087582008F
:10040B00EF2FFFEE33FECD33CDCC33CCC58233C5CE
:10041B00829BED9AEC99E58298400CF582EE9BFE5F
:10042B00ED9AFDEC99FC0FD5F0D6E4CEFBE4CDFABA
:10043B00E4CCF9A88222B800C1B90059BA002DEC5E
:10044B008BF084CFCECDFCE5F0CBF97818EF2FFFF6
:10045B00EE33FEED33FDEC33FCEB33FB10D703999E
:10046B004004EB99FB0FD8E5E4F9FA227818EF2F4B
:10047B00FFEE33FEED33FDEC33FCC933C910D7056A
:10048B009BE99A4007EC9BFCE99AF90FD8E0E4C989
:10049B00FAE4CCFB2275F010EF2FFFEE33FEED33B9
:1004AB00FDCC33CCC833C810D7079BEC9AE89940E6
:1004BB000AED9BFDEC9AFCE899F80FD5F0DAE4CD48
:1004CB00FBE4CCFAE4C8F922C3E49FFFE49EFEE40C
:1004DB009DFDE49CFC22EB9FF5F0EA9E42F0E99D2A
:1004EB0042F0EC6480C864809845F022EB9FF5F0F5
:1004FB00EA9E42F0E99D42F0E89C45F022E8600F4D
:10050B00ECC313FCED13FDEE13FEEF13FFD8F1223A
:10051B00E86010ECA2E713FCED13FDEE13FEEF13F6
:10052B00FFD8F022E8600FEFC333FFEE33FEED335D
:10053B00FDEC33FCD8F122ECF0A3EDF0A3EEF0A32D
:10054B00EFF022A8828583F0D083D082120565124A
:10055B000565120565120565E473E493A3C583C5B0
:10056B00F0C583C8C582C8F0A3C583C5F0C583C8D1
:10057B00C582C822A42582F582E5F03583F5832256
:10058B00BB010789828A830206225005E9F802061D
:10059B0010BBFE05E9F802063489828A83020646FF
:1005AB00BB011A89828A83D0F0D0E0F8D0E0F9D071
:1005BB00E0FAD0E0FBE8C0E0C0F002062B5016E9F1
:1005CB00F8D083D082D0E0F9D0E0FAD0E0FBC08243
:1005DB00C083020619BBFE16E9F8D083D082D0E0A7
:1005EB00F9D0E0FAD0E0FBC082C08302063D22C501
:1005FB00F0F8A3E028F0C5F0F8E58215827002153B
:10060B0083E038F022E6FB08E6FA08E6F922EBF67F
:10061B0008EAF608E9F622E0FBA3E0FAA3E0F922E8
:10062B00EBF0A3EAF0A3E9F022E2FB08E2FA08E21E
:10063B00F922EBF208EAF208E9F222E493FB7401E7
:10064B0093FA740293F922121EF48F288E278D26AB
:10065B008C25E5342460F538E53334F0F537E53295
:10066B0034FFF536E53134FFF535AF38AE37AD36FF
:10067B00FCF8A905AA06AB071203B6780C12051BEA
:10068B00A804A905AA06AB079003B9E0FEA3E0FFF7
:10069B00EE3395E0FDFC1203B6780B12051B8F2C85
:1006AB008E2B8D2A8C299003D6E0FEA3E0FFEE3330
:1006BB0095E0FDFCAB38AA37A936A8351203B678FE
:1006CB000B12051B8F308E2F8D2E8C2DE52C25308C
:1006DB00F53CE52B352FF53BE52A352EF53AE5298B
:1006EB00352DF5399003D4E0FEA3E0FFEE3395E012
:1006FB00FDFCE47B04FAF9F81203B6EF253CFFEEA0
:10070B00353BFEED353AFDEC3539FCEF2402FFE4C9
:10071B003EFEE43DFDE43CFCE47B04FAF9F8121BDD
:10072B00D68F408E3F8D3E8C3D9003D8E0FEA3E0EC
:10073B00FFEE3395E0FDFCAB38AA37A936A835128E
:10074B0003B6780D12051B8F2C8E2B8D2A8C29AF9F
:10075B0038AE37AD36AC35AB38AA37A936A835121B
:10076B0003B6780C12051BA804A905AA06AB0790C3
:10077B0003B7E0FEA3E0FFEE3395E0FDFC1203B6FA
:10078B00781012051B8F308E2F8D2E8C2DE52C257E
:10079B0030FFE52B352FFEE52A352EFDE529352DCE
:1007AB00FCEF2402FFE43EFEE43DFDE43CFC78025A
:1007BB0012051B8F3C8E3B8D3A8C39E4253CFFE5B3
:1007CB003B3480FEE4353AFDE43539AB07AA06A984
:1007DB0005F89003DAE0FEA3E0FFE4FCFD1203B69C
:1007EB00780F1205088F488E478D468C45C3E52838
:1007FB009540FFE527953FFEE526953EFDE52595C2
:10080B003DFCE47B507AC3F9F81203B68F4C8E4B48
:10081B008D4A8C49E4FFFEFD7C80AB4CAA4BA94A68
:10082B00A849C31204F75018E47F02FEFDFCA84947
:10083B001203B6AB48AA47A946A845120441801C2F
:10084B00AB48AA47A946A845AF4CAE4BAD4AAC49FD
:10085B00120441E47B02FAF9F81203B68F448E437B
:10086B008D428C41AF44AE43AD42AC41780812058A
:10087B001BC004C005C006C007AF44AE43AD42ACBD
:10088B0041780812051BD003D002D001D00012030F
:10089B00B68F2C8E2B8D2A8C29E47FDE7E0BFDFCF4
:1008AB00AB2CAA2BA92AA8291203B6781012051B68
:1008BB008F2C8E2B8D2A8C297F437EE37DFF7CFF33
:1008CB00AB44AA43A942A8411203B6781012051BE8
:1008DB008F308E2F8D2E8C2DE52C2530FFE52B3573
:1008EB002FFEE52A352EFDE529352DFCEF24CFFF14
:1008FB00EE340EFEE43DFDE43CFC780412051BEFE8
:10090B002544FFEE3543FEED3542FDEC3541FC90C1
:10091B0003B21205429003B2E0FCA3E0FDA3E0FE9C
:10092B00A3E0FF228F288E278D268C257B807A5182
:10093B0079017800121BD6EF2401F52DE43EF52C3E
:10094B00E43DF52BE43CF52A7B807A517901780064
:10095B00AF28AE27AD26AC25121BD6AC00AD01AE31
:10096B0002AF038F318E308D2F8C2EE52D24FCFFA3
:10097B00E52C34FFFEE52B34FFFDE52A34FFFCE4C8
:10098B007B07FAF9F8121BD69001D9EBF090000314
:10099B007407F0A374E5F0121E0FAB07E52D24933B
:1009AB00FFE52C34FEFEE52B34FFFDE52A34FFFC7E
:1009BB00C3EF9BFFEE9400FEED9400FDEC9400FC66
:1009CB00E4FBFAF9F8C31204E15032900004E0049E
:1009DB00F07006900003E004F0121E0FEF246DFF81
:1009EB00E43401FAC3E52D9FF52DE52C9AF52CE5A2
:1009FB002B9400F52BE52A9400F52A809A121E0FF2
:100A0B00EF9001CE6005741DF08003741CF0900014
:100A1B00027401F0E4F52974CD2529F582E4340143
:100A2B00F583E0FBC3E52D9BFFE52C9400FEE52B46
:100A3B009400FDE52A9400FCE4FBFAF9F8C31204D8
:100A4B00E1503074CD2529F582E43401F583E0FBC8
:100A5B00C3E52D9BF52DE52C9AF52CE52B99F52B64
:100A6B00E52A9400F52A900002E004F00529E52917
:100A7B00B40CA49001C7E52DF0E47B107A0EF9F8C5
:100A8B00AF31AE30AD2FAC2E121BD69001C8EFF0AC
:100A9B00AF31AE30AD2FAC2EE47B107A0EF9F812DD
:100AAB001BD6AC00AD01AE02AF038F318E308D2F54
:100ABB008C2EE47B3CFAF9F8121BD6900001EFF078
:100ACB00AF31AE30AD2FAC2EE47B3CFAF9F8121BF4
:100ADB00D6AC00AD01AE02AF038F318E308D2F8CB3
:100AEB002EE47B3CFAF9F8121BD6900000EBF022B7
:100AFB00534243283531293B44435631362832374C
:100B0B00352C3136332C274F4E272C3136293B00D1
:100B1B00534243283531293B44435631362832372B
:100B2B00352C3136332C274F4646272C3136293B73
:100B3B0000534243283436293B444356313628323E
:100B4B0037352C3232302C274F4E272C3136293B60
:100B5B0000534243283436293B444356313628321E
:100B6B0037352C3232302C274F4646272C3136293D
:100B7B003B00534243283233293B444356313628FA
:100B8B003137382C3232352C2700B7D6D6D3272C19
:100B9B003136293B006368616E67650041542B4316
:100BAB0049504D55583D310D0A0041542B43495086
:100BBB0053544152543D302C22544350222C223258
:100BCB0030332E3139352E3133342E313135222C11
:100BDB00373030300D0A0041542B43495053454EAA
:100BEB00443D302C370D0A0068616861310D0A00F5
:100BFB0068616861320D0A0068616861330D0A0033
:100C0B00434C52283136293B4449522833293B4621
:100C1B0053494D4728323039373135322C302C304F
:100C2B002C3332302C3234302C302900C8FD008F5D
:100C3B00288E278D268C25E4752E01F52DF52CF5A8
:100C4B002BE529B4FF39752901AB2EAA2DA92CA8A8
:100C5B002BAF28AE27AD26AC25121BD6EC4D4E4F35
:100C6B0060740529AF2EAE2DAD2CAC2BE47B0AFAAC
:100C7B00F9F81203B68F2E8E2D8D2C8C2B80CAE497
:100C8B00F52AAF29EF3395E0FEC3E52A9FEE64808A
:100C9B00F8748098501DAF2EAE2DAD2CAC2BE47B91
:100CAB000AFAF9F81203B68F2E8E2D8D2C8C2B058C
:100CBB002A80CFAF28AE27AD26AC25AB2EAA2DA907
:100CCB002CA82B121BD6AC00AD01AE02AF038F28A4
:100CDB008E278D268C25E4F52AAF2EAE2DAD2CACB0
:100CEB002B8061AF2EAE2DAD2CAC2BEC4D4E4F604F
:100CFB0065AB2EAA2DA92CA82BAF28AE27AD26AC01
:100D0B0025121BD6EF2430FFAE2A052A74E02EF5F0
:100D1B0082E43402F583EFF0AF28AE27AD26AC2585
:100D2B00AB2EAA2DA92CA82B121BD6AC00AD01AE55
:100D3B0002AF038F288E278D268C25AF2EAE2DADBF
:100D4B002CAC2BE47B0AFAF9F8121BD68F2E8E2DC6
:100D5B008D2C8C2B808D74E0252AF582E43402F5E2
:100D6B0083E4F07B017A0279E022C0E0C0F0C0831B
:100D7B00C082C0D075D000C000C001C002C003C08B
:100D8B0004C005C006C007758CDC758A2A9001C9A2
:100D9B00E0FCA3E0FDA3E0FEA3E0FFE4FAF9F8EF2B
:100DAB002401FFEA3EFEE93DFDE83CFC9001C9123F
:100DBB000542E47B64F89001C9E0FCA3E0FDA3E0ED
:100DCB00FEA3E0FF121BD6AC00AD01AE02AF03ECED
:100DDB004D4E4F7053B2909001DCE0FCA3E0FDA3AD
:100DEB00E0FEA3E0FFE4FAF9F8EF2401FFEA3EFE90
:100DFB00E93DFDE83CFC9001DC120542D205D390A5
:100E0B0001DBE094009001DAE09400400CA3E024B5
:100E1B00FFF09001DAE034FFF09001DAE07004A308
:100E2B00E064017003122081E47B2C7A01F9F890C5
:100E3B0001C9E0FCA3E0FDA3E0FEA3E0FF121BD67B
:100E4B00AC00AD01AE02AF03EC4D4E4F7002D206BB
:100E5B007F407E427D0F7C009001C9E0F8A3E0F952
:100E6B00A3E0FAA3E0FBC31204E1400A9001C9120C
:100E7B00054E00000000D007D006D005D004D003EB
:100E8B00D002D001D000D0D0D082D083D0F0D0E02F
:100E9B0032E0FCA3E0FDA3E0FEA3E0FF8F298E2848
:100EAB008D278C267BA07A8679017800121BD6EFD2
:100EBB0024309003B6F0AF29AE28AD27AC267BA02B
:100ECB007A8679017800121BD6AC00AD01AE02AF69
:100EDB00038F298E288D278C26E47B107A27F9F82F
:100EEB00121BD6EF24309003C2F0AF29AE28AD27EA
:100EFB00AC26E47B107A27F9F8121BD6AC00AD01B7
:100F0B00AE02AF038F298E288D278C26E47BE87ADF
:100F1B0003F9F8121BD6EF24309003BBF0AF29AEC8
:100F2B0028AD27AC26E47BE87A03F9F8121BD6AC84
:100F3B0000AD01AE02AF038F298E288D278C26E4DE
:100F4B007B64FAF9F8121BD6EF24309003BCF0AF98
:100F5B0029AE28AD27AC26E47B64FAF9F8121BD630
:100F6B00AC00AD01AE02AF038F298E288D278C26E6
:100F7B00E47B0AFAF9F8121BD6EF24309003C1F088
:100F8B00AF29AE28AD27AC26E47B0AFAF9F8121B81
:100F9B00D6AC00AD01AE02AF038F298E288D278C06
:100FAB0026EF24309003CCF0228B258A26892775D7
:100FBB0028FF7529FFE4F52BAB25AA26A927852B3E
:100FCB008275830012029B70030210C4643B6003A2
:100FDB000210ADE528B4FF09E52A24D0F52802104C
:100FEB00ADE529F460030210AD052BE52A24D0F5FD
:100FFB0029E4F52CAB25AA26A927852B827583001E
:10100B0012029BFF643B6053EF6050AF2B052B8F9D
:10101B008275830012029BFFE528FD3395E0FC905F
:10102B00000575F05AED12057FEC75F05AA4258377
:10103B00F583E529FD3395E0FC75F012ED12057F84
:10104B00EC75F012A42583F583AE2C052CE5822ECE
:10105B00F582E43583F583EFF08099AF28EF339574
:10106B00E0FE90000575F05AEF12057FEE75F05A11
:10107B00A42583F583AF29EF3395E0FE75F012EFCE
:10108B0012057FEE75F012A42583F583AF2C052C8A
:10109B00E5822FF582E43583F583E4F07529FF753E
:1010AB0028FFAB25AA26A927AF2B052B8F8275838B
:1010BB000012029BF52A020FC322EF4E700302119E
:1010CB00C89003E2E07002A3E070030211C8CDEFF9
:1010DB00CDCCEECCED24FCFDEC34FFFC752D037573
:1010EB002EE0852E82852D83E0FAA3E08A2FF53042
:1010FB00452F6011D3E5309FE52F9E5008852F2D8E
:10110B0085302E80DDE530452F604A8D828C83A3A0
:10111B00A3E0FAA3E02FFFEA3EFEEF65307003EE8B
:10112B00652F7031853082852F83A3A3E0FEA3E06A
:10113B002404FFE43E8D828C83A3A38FF01205FA67
:10114B00853082852F83E0FFA3E08D828C83CFF0E7
:10115B00A3EFF0800B8D828C83E52FF0A3E530F0AD
:10116B00852E82852D83A3A3E0FEA3E0252EFFEE23
:10117B00352DFEEF2404FFE43EFEEF6D7002EE6CA6
:10118B0070308D828C83A3A3E0FEA3E02404FFE4E4
:10119B003E852E82852D83A3A38FF01205FA8D82B7
:1011AB008C83E0FFA3E0852E82852D83CFF0A3EF08
:1011BB00F022852E82852D83ECF0A3EDF022121FF9
:1011CB00598F288E278D268C259003DEE0FEA3E019
:1011DB00FBC3E5289BFBE5279EFAE5269400F9E582
:1011EB00259400F89003DCE0FEA3E0FFE4FCFD1285
:1011FB0003B6780F12051B8F2C8E2B8D2A8C299002
:10120B0003D0E0FEA3E0FFEE3395E0FDFC780B127C
:10121B00052FC004C005C006C007A3E0FEA3E0FF76
:10122B00EE3395E0FDFCEF252CFBEE352BFAED357F
:10123B002AF9EC3529F8D007D006D005D004121BBB
:10124B00D68F308E2F8D2E8C2DE52C2530F534E559
:10125B002B352FF533E52A352EF532E529352DF5CE
:10126B0031E5342408FFE43533FEE43532FDE43553
:10127B0031FC780412051B9003BD1205429003BD8F
:10128B00E0FCA3E0FDA3E0FEA3E0FF2212207D7BA8
:10129B00FF7A1479CC121A729001C8E0FFE4FCFDBE
:1012AB00FE7529FF120C3A121A727BFF7A1479C45D
:1012BB00121A72900001E0FFE4FCFDFE7529021288
:1012CB000C3A121A727BFF7A1479C4121A729000BC
:1012DB0000E0FFE4FCFDFE752902120C3A121A72B3
:1012EB007BFF7A1479E2121A727BFF7A1479E91276
:1012FB001A72900002E0FFE4FCFDFE7529FF120C50
:10130B003A121A727BFF7A1479F7121A729001C78C
:10131B00E0FFE4FCFDFE7529FF120C3A121A727BFA
:10132B00FF7A1479FA121A727BFF7A157903121A63
:10133B00729001D9E075F007A42411F9741535F0FA
:10134B00FA7BFF121A727BFF7A1479E2121A72027D
:10135B002049438901758CDC758A2AD2AFD2A9D278
:10136B008CD2AF7E017FE07D007C01121CD77F0900
:10137B007E00121415AA06A9077B018B088A09891E
:10138B000A900007E4F5F01203898B0B8A0C890D88
:10139B001B7A007900C003C002C001AB0BAA0CA9D9
:1013AB000D1205ABE4F5287B0AFD7F0C1216F4E455
:1013BB00F528FB7D0F7F0D1216F4E4F528FB7D0F4E
:1013CB007F0E1216F47F027E0012177FE4FFE4FEFD
:1013DB0075F05AEFA42405F582E5F03400F583751A
:1013EB00F012EE12057FE4F00EBE05E40FBF05DE32
:1013FB007BFF7A1479B1120FB49001DCE0FCA3E00F
:10140B00FDA3E0FEA3E0FF02092F8E2C8F2D7E03A0
:10141B007FE08F828E83E0FCA3E0FD4C7003FEFF28
:10142B00228D828C83A3A3E0FAA3E0FBC3952DEA64
:10143B00952C5008CEECCECFEDCF80D6C3EB952DAF
:10144B00F52FEA952CF52EC3E52F9410E52E94007D
:10145B0050198D828C83E0FBA3E08F828E83CBF0BF
:10146B00A3EBF0ED2404FFE43CFE2274FC252FF5E6
:10147B002F74FF352EF52E8D828C83A3A3F0A3E55D
:10148B002FF0ED2404FFE43CFEEF252FFFEE352E6D
:10149B00FE8F82F583A3A3E52CF0A3E52DF0EF24BB
:1014AB0004FFE43EFE22313B303BD4CBBFD87CB2B1
:1014BB00A9D1A7C2A5413036003A002020000D0A61
:1014CB0000534243283531293B44435632342838A4
:1014DB00302C32352C2700272C3136293B00444346
:1014EB005632342838302C35302C2700D4C200C863
:1014FB00D5272C3136293B00444356323428383516
:10150B002C37352C2700D0C7C6DAD2BB00D0C7C6C4
:10151B00DAB6FE00D0C7C6DAC8FD00D0C7C6DACB34
:10152B00C400D0C7C6DACEE500D0C7C6DAC1F90011
:10153B00D0C7C6DACCEC0007090E101232321400F9
:10154B00327FAA121B9A9003D4EEF0A3EFF07FAC7C
:10155B00121B9A9003D6EEF0A3EFF07FAE121B9AFC
:10156B009003D8EEF0A3EFF07FB0121B9A9003DA42
:10157B00EEF0A3EFF07FB2121B9A9003DCEEF0A318
:10158B00EFF07FB4121B9A9003DEEEF0A3EFF07F27
:10159B00B6121B9A9003B7EEF0A3EFF07FB8121BB5
:1015AB009A9003B9EEF0A3EFF07FBA121B9A900357
:1015BB00CEEEF0A3EFF07FBC121B9A9003D0EEF0AF
:1015CB00A3EFF07FBE121B9A9003D2EEF0A3EFF0C5
:1015DB0022C101C104C102C103C10042034C000A74
:1015EB000116000117004802E0313009313131009A
:1015FB00004103CD004903C33131313131310D0A83
:10160B00004401C9000000004401DC00BE48764CD8
:10161B0001CD1F1C1F1E1F1E1F1F1E1F1E1F420042
:10162B000307E5410002054101C7184101C80C4100
:10163B00000100410000004101D900C105C1064273
:10164B0001DA0000011803041203040506C107C1E7
:10165B00084803E0000000000000000000787FE471
:10166B00F6D8FD75814F0216AF0219D7E493A3F894
:10167B00E493A34003F68001F208DFF48029E4939E
:10168B00A3F85407240CC8C333C4540F4420C88395
:10169B004004F456800146F6DFE4800B0102040897
:1016AB00102040809015DCE47E019360BCA3FF54B6
:1016BB003F30E509541FFEE493A360010ECF54C0E5
:1016CB0025E060A840B8E493A3FAE493A3F8E4936D
:1016DB00A3C8C582C8CAC583CAF0A3C8C582C8CA75
:1016EB00C583CADFE9DEE780BE8F258D268B277F7A
:1016FB00097E00121415AA06A9077529018A2A89E1
:10170B002BAB29C003C002C001AB0BAA0CA90D1255
:10171B0005ABAB29AA2AA92B900004E5251202C818
:10172B00900005E5261202C8900006E5271202C8B4
:10173B00900003E5281202C87B007A007900C003F1
:10174B00C002C001AB29AA2AA92B1205ABAB0BAA6D
:10175B000CA90D9000071203512401FFE435F0ABE7
:10176B0029AA2AA92B9000078FF01203898B0B8AC9
:10177B000C890D228E258F26850827850928850A39
:10178B0029AB27AA28A92912058BE94A4B606DAB17
:10179B0027AA28A92912058B900007120351652649
:1017AB007004E5F0652570438B2A8A2B892CE50B99
:1017BB00850C83850D826B7008E965827003EA6581
:1017CB0083700985270B85280C85290DAB2AAA2B3D
:1017DB00A92C12058BC003C002C001AB27AA28A9F4
:1017EB00291205ABAE2BAF2C0210C5AB27AA28A92B
:1017FB002912058B8B278A288929808522534243FE
:10180B002831293B4443563234283234352C353079
:10181B002C27002E00A1E6272C3136293B00534202
:10182B0043283439293B4443563136283137302C41
:10183B003136342C27004B5061272C3136293B0095
:10184B00534243283133293B4443563136283130F8
:10185B00332C3230302C27004C757820272C313626
:10186B00293B00534243283134293B4443563234FD
:10187B002831382C3230302C270025272C313629B3
:10188B003B00E4FCC2A212203CD2A212003E7F50CD
:10189B0030A206AE071FEE70F7EF700280327FFAB0
:1018AB0020A206AE071FEE70F7EF700280227FFAC0
:1018BB0030A206AE071FEE70F7EF70028012E4FE47
:1018CB00E4FD7F9620A206AB071FEB70F7EF7004C9
:1018DB00D2A2FF22E4FF30A2040FEF70F9EC25E057
:1018EB00FCEFD3941E40010C0DBD08D6EE70059095
:1018FB0003CDECF00EBE05C812003E12003ED2A284
:10190B009003CDE0FF22C0E0C083C082C0D075D071
:10191B0000C006C007C298AF99200146E516C394D4
:10192B00644005C204751600BF2C027F2EAE16054F
:10193B0016744E2EF582E43403F583EFF030041564
:10194B00BF0A0BE516D394024004D201800375162F
:10195B0000C204800DBF0D04D2048006BF0A0375BC
:10196B001600D007D006D0D0D082D083D0E0321270
:10197B00201F7F47121F18E4F526121F39742725E5
:10198B0026F8A607E526B40304D2098002C2091281
:10199B00202E0526E526C3940340DF1220557F0534
:1019AB007E00121E9EAF27EFFE7C00E42528FFEC85
:1019BB003EFEAD07FC1200EB7B9A7A997999783F42
:1019CB001200498F118E108D0F8C0E2278227C0005
:1019DB007D007BFF7A0C79377E007F031202751234
:1019EB00135D121FE912002612207D7BFF7A0C7902
:1019FB000B121A72122049121D4E12154C121D4E4B
:101A0B00121ECA30050B121E3F121297120003C290
:101A1B00053006EF121ECAC20680E8C0E0C0F0C057
:101A2B0083C082C0D075D000C000C001C002C0030B
:101A3B00C004C005C006C0077FFF121F8FEF600CEC
:101A4B00E4FF121F8FE59BB40A02C202D007D00637
:101A5B00D005D004D003D002D001D000D0D0D0829A
:101A6B00D083D0F0D0E0328B268A278928E4FFFE82
:101A7B00AB26AA27A928AD060E8D8275830012020C
:101A8B009B70EDE4FFEE14FDEFC39D5022AB26AA35
:101A9B0027A9288F8275830012029BFDAC170517AF
:101AAB0074E82CF582E43402F583EDF00F80D62236
:101ABB00121FFF12197A121B4C12207D7BFF7A1812
:101ACB00794B121A72AF25052574C32FF582E434B6
:101ADB0003F583E0643060ED1525E49003C9F074E1
:101AEB00C32525F9E43403FA7B01121A727BFF7AC2
:101AFB00187963121A720220491211C9121C5D1255
:101B0B00207D7BFF7A187908121A727B017A037990
:101B1B00C67D01121DAF7B017A0379C77D01121DB2
:101B2B00AF7BFF7A18791E121A727B017A0379C880
:101B3B007D01121DAF7BFF7A187920121A720220D9
:101B4B0049AF11AE10AD0FAC0E120124120EA790BF
:101B5B0003CCE09003C8F09003C1E09003C7F09072
:101B6B0003BCE09003C6F09003BBE09003C5F0907C
:101B7B0003C2E09003C4F09003B6E09003C3F07B84
:101B8B00017A0379C3227F0A7E00121E9E7FF68F95
:101B9B004D12201F7FEE121F18AF4D121F1812206F
:101BAB001F7FEF121F18121F398F4EC20912202EE2
:101BBB00121F398F4FD20912202E1220557F057E0E
:101BCB0000121E9EE54EFEE54FFF22C2D5E830E720
:101BDB000FB2D5E4C39BFBE49AFAE499F9E498F8C5
:101BEB00EC30E717B2D5121C0C120441E4C39BFB7B
:101BFB00E49AFAE499F9E498F8800312044130D599
:101C0B000DE4C39FFFE49EFEE49DFDE49CFC22904B
:101C1B0003CDE0FFE4FCFDFE120EA79003CCE09099
:101C2B0003C8F09003C1E09003C7F09003BCE090B1
:101C3B0003C6F09003BBE09003C5F09003C2E090A5
:101C4B0003C4F09003B6E09003C3F07B017A0379F1
:101C5B00C3229003BD120E9C9003CCE09003C8F0FE
:101C6B009003C1E09003C7F09003BCE09003C6F073
:101C7B009003BBE09003C5F09003C2E09003C4F067
:101C8B009003B6E09003C3F07B017A0379C32290F3
:101C9B0003B2120E9C9003CCE09003C8F09003C1EA
:101CAB00E09003C7F09003BCE09003C6F09003BB39
:101CBB00E09003C5F09003C2E09003C4F09003B62C
:101CCB00E09003C3F07B017A0379C322EF4E7008D7
:101CDB00FE7F01ED1D70011C9003E0EEF0A3EFF011
:101CEB00A3ECF0A3EDF09003E0E0FEA3E0FFF582A0
:101CFB008E83E4F0A3F0ED24FCFDEC34FF8F828E99
:101D0B0083A3A3F0A3EDF022120652121C9A122009
:101D1B007D7BFF7A187929121A729003C6E0A3F023
:101D2B009003C6742EF0E49003C8F07B017A03791C
:101D3B00C3121A727BFF7A187941121A7202204968
:101D4B0012206B7FE87E03E4FDFCC3ED9FEC9E50FD
:101D5B0021E4FBFA900000A3E582645F458370F7F2
:101D6B000BBB00010AEB640A4A70E90DBD00010CC4
:101D7B0080D822E4FEFF121F78EEC39517501D7416
:101D8B00E82EF582E43402F583E0F59B7FFF121F0A
:101D9B00A6EF60F8E4FF121FA60E80DD7F01121F75
:101DAB007802207D8B258A268927E4FFEFC39D507F
:101DBB0022AB25AA26A9278F8275830012029BFED0
:101DCB00AC17051774E82CF582E43402F583EEF0BA
:101DDB000F80D92212188DEF6029121C1A12207D48
:101DEB007BFF7A18796E121A72E49003C9F07B01AB
:101DFB007A0379C7121A727BFF7A187985121A72D5
:101E0B0012204922900003E0FEA3E0FFAB07AA06D5
:101E1B00EB5403700AFC7D641202FCED4C700FAEA8
:101E2B0002AF037C017D901202FCED4C70037F012D
:101E3B00227F0022900000E0C3943B5002800F9061
:101E4B000001E0C3943B500AE4900000F0A3E004CF
:101E5B00F0229001DCE0FCA3E0FDA3E0FEA3E0FF99
:101E6B0012092F2212207D7BFF7A0B797D121A72B9
:101E7B0090034CE0FEA3E0FFEE3395E0FDFC7529EB
:101E8B00FF120C3A121A727BFF7A0B7995121A72A7
:101E9B00022049E4FDFCC3ED9FEC9E5021E4FBFACC
:101EAB00900000A3E582645F458370F70BBB0001D4
:101EBB000AEB640A4A70E90DBD00010C80D82212AE
:101ECB001B04120003121D13120003121ABB120083
:101EDB0003121DDF120003121FBD120003121FD3CA
:101EEB00120003121E6F0200037F007E007D007C38
:101EFB000012201F7FEE121F187FF4121F187F3461
:101F0B00121F18122055121B91E4FDFC22AE07E4A0
:101F1B00FDEE25E0FEC2A112201792A0122017D2CF
:101F2B00A11220170DBD08E912201002206112200A
:101F3B0010E4FDD2A1122017EE25E0FFA2A0E4339E
:101F4B004FFEC2A11220170DBD08E8AF06221220CA
:101F5B001F7FEE121F187FF4121F187F2E121F18EF
:101F6B00122055121B91EE3395E0FDFC22BFFF06AC
:101F7B00E5AF5401FF22EF600543AF01800353AF80
:101F8B00FE7F0122BFFF06E59A5401FF22EF600599
:101F9B00439A018003539AFE7F0122BFFF06E59A05
:101FAB005402FF22EF6005439A028003539AFD7F90
:101FBB00012212207D7BFF3003067A0A79FB800415
:101FCB007A0B791B1220742212207D7BFF300306C3
:101FDB007A0B793C80047A0B795C1220742243894A
:101FEB0020758DFD758BFDD28ED29CC29FD29ED259
:101FFB00AFD2AC227F0112000E7F1012000E7FC8F1
:10200B007E00021E9EC2A1122017D2A00000007FEC
:10201B000ADFFE22D2A0D2A1122017C2A0122017D3
:10202B00C2A122A20992A0D2A1122017C2A1022002
:10203B00177F017ED87D23DDFEDEFCDFFA227BFFDE
:10204B007A007920121A72021D7EC2A0D2A1122030
:10205B0017D2A0022017D2A1122017C2A10220175B
:10206B003001FDC201E4F5162212207D121A720214
:09207B002049E4F51722D280226D
:00000001FF
