:1000000002297FD295D296D29722040218AFEF44EC
:1000100088F5BC00000000E5BC30E4FB53BCEFAF4A
:02002000BD22FF
:10002300022BA575C78275C5028E758F768575C33C
:0F0033008576C48DC275C65A75C6A5000237A260
:10004300022F9902019AEC5D046005E859047003DC
:1000530002019012015B580460F6EC4860F2EC7008
:1000630004FDFEFF22C860DB2481C85009C39860E9
:100073000250060201979850CAF582E9294B4A704B
:1000830005AB8202018675F0007C1A7880C3EF9B72
:10009300EE9AED99400DC3EF9BFFEE9AFEED99FDAD
:1000A300E842F0DC23ACF0D0E0FFD0E0FED0E0FD8E
:1000B300AB8220E7101BEB60BAEC2CFCEF33FFEEB6
:1000C30033FEED33FD020172E803F830E705C0F0BB
:1000D30075F000EF2FFFEE33FEED33FD40B830E750
:1000E300C280AA75F020800E75F010800575F008A7
:1000F3007D007E007F003392D530D50312089EEC3D
:10010300334010EF33FFEE33FEED33FDEC33FCD51C
:10011300F0ED22E5F0247EA2D513CC92E7CDCEFFFD
:1001230022EDD2E7CD33EC3392D524814006E4FFB0
:10013300FEFDFC22FCE4CFCECDCC24E0501174FFB5
:1001430080EDC3CC13CCCD13CDCE13CECF13CF04C0
:1001530070F030D5DE02089EE9D2E7C933E833F800
:1001630092D5EDD2E7CD33EC33FC5002B2D522EC7D
:1001730030E7100FBF000C0EBE00080DBD00040BCE
:10018300EB6014A2D5EB13FCED92E7FD2274FFFCA8
:10019300FDFEFF22E480F8A2D574FF13FC7D80E40A
:1001A30080EFF920E72824F950037907E4F42402C7
:1001B300FB18DBFDE624FB5014E9600DE4F618E6BA
:1001C30004F6B40A08E4F6D9F57401F60A22C2D596
:1001D30022ED33EC3392D5FA602AB4FF33EDC2E754
:1001E3007BFF60067A0179F9E4227A02790220D54D
:1001F300047A0179FD224E614E002B494E46002DB3
:10020300494E4600E47A08F608DAFC7B00740722BC
:10021300E8C0E0ECC0E0EDC0E0EEC0E0EFC0E0EA33
:1002230075F010A4CAABF075F04DA42BFBE435F0C8
:10023300FCEA2410FAEB34C5FBEC34D9FCEDC2E73D
:10024300FF75F056A4F42411C5F0F434C58FF0A45F
:100253002AE5F03BE43CF620E714120505D0E0FF65
:10026300D0E0FED0E0FDD0E0FC1200498014F4049D
:10027300120505D0E0FFD0E0FED0E0FDD0E0FC1297
:1002830003CFD0E0F8E6FAEDD2E7CD33EC332482A6
:10029300FBE4C3CF33CFCE33CECD33CD33DBF37BD0
:1002A3000775F00A846004F6081B0AE5F0F6088F68
:1002B300F0740AA4FFACF08EF0740AA42CFEACF028
:1002C30050010C8DF0740AA42CFDE435F0F608DB24
:1002D300DE740722020190E86480F8E933E83360B2
:1002E300110460F0ED33EC337009E8FCE9FDEAFE3C
:1002F300EBFF220460DED3EB9FEA9EE99DE8C2E7B1
:100303008CF0C2F795F0400CE8CCF8E9CDF9EACED1
:10031300FAEBCFFB12015B85D0F05804700320D5B4
:10032300B3E80470075002B2D502019A92D5EC04E7
:1003330060F7E4CCC0E0C398F8603B9418600840D1
:100343000DD0E0FB020172E4FBFAC9FC8028E8301F
:10035300E406E4C9FBE4CAFCE830E305E4C9CACB1C
:10036300FCE854076010F8C3E913F9EA13FAEB1336
:10037300FBEC13FCD8F130F52FC3E49CFCEF9BFF9F
:10038300EE9AFEED99FDD0E0FBEF4E4D4C7012223C
:10039300DB03020197EC2CFCEF33FFEE33FEED336E
:1003A300FDED30E7EB020172EF2BFFEE3AFEED3984
:1003B300FDD0E0FB50130BBB000302019AED13FDCC
:1003C300EE13FEEF13FFEC13FC020172EC4D601110
:1003D300E8497017ED33EC3304600DE4FCFFFEFDD8
:1003E30022E933E8330470F802019012015B5804E8
:1003F3006009E4CC2481500628500902019A284060
:1004030003020197C0E0EB4A7044B98006D0E0FBD9
:10041300020186EF4E701CBD8008EBFFEAFEE9FD8A
:1004230080EBE98DF0A4FEE5F00204B8E9CDF9EA2A
:10043300FEEBFFEF89F0A4FCE5F0CE89F0A42EFFDC
:10044300E435F0CD89F0A42DFEE435F08067EF4E5E
:100453007005BD80D780C3EF8BF0A4ACF0EE8BF0BA
:10046300A42CFCE435F0F8EF8AF0A42CE5F038FC7A
:10047300E433CB8DF0A42CFCE5F03BF8EE8AF0A43A
:100483002CFCE5F038F8E433CF89F0A42CFCE5F03C
:1004930038CF3400CE89F0A42FFFE5F03EFEE433DD
:1004A300C98DF0A42EFEE5F039CD8AF0A42FFFE527
:1004B300F03EFEE43DFD33D0E0FB50070BBB000FE5
:1004C30002019AEC2CFCEF33FFEE33FEED33FD0219
:1004D30001723F8000004120000042C80000447ABE
:1004E3000000461C400047C35000497424004B18C9
:1004F30096804CBEBC205A0E1BCA6753C21C749D07
:10050300C5AEFB60065407601C2323120533EB546E
:1005130038600912051F12052E1203CFECF8EDF90E
:10052300EEFAEFCB22EB12052E80F1543803241C94
:100533009004D5FE93FC0EEE93FD0EEE930ECE9338
:10054300FF22E709F608DFFA8046E709F208DFFA37
:10055300803E88828C83E709F0A3DFFA8032E309C7
:10056300F608DFFA8078E309F208DFFA8070888200
:100573008C83E309F0A3DFFA806489828A83E0A392
:10058300F608DFFA805889828A83E0A3F208DFFA4B
:10059300804C80D280FA80C680D4806980F2803318
:1005A300801080A680EA809A80A880DA80E280CAE0
:1005B300803389828A83ECFAE493A3C8C582C8CCCA
:1005C300C583CCF0A3C8C582C8CCC583CCDFE9DE24
:1005D300E7800D89828A83E493A3F608DFF9ECFAB6
:1005E300A9F0EDFB2289828A83ECFAE0A3C8C582D5
:1005F300C8CCC583CCF0A3C8C582C8CCC583CCDF27
:10060300EADEE880DB89828A83E493A3F208DFF9D8
:1006130080CC88F0EF60010E4E60C388F0ED2402B9
:10062300B4040050B9F582EB2402B4040050AF23A4
:100633002345822390059573BB010689828A83E053
:10064300225002E722BBFE02E32289828A83E493DB
:1006530022BB010CE58229F582E5833AF583E0228A
:100663005006E92582F8E622BBFE06E92582F8E278
:1006730022E58229F582E5833AF583E49322BB01DF
:100683000689828A83F0225002F722BBFE01F322FD
:10069300F8BB010DE58229F582E5833AF583E8F09D
:1006A300225006E92582C8F622BBFE05E92582C849
:1006B300F222EF8DF0A4A8F0CF8CF0A428CE8DF019
:1006C300A42EFE22BC000BBE0029EF8DF084FFADEB
:1006D300F022E4CCF875F008EF2FFFEE33FEEC3395
:1006E300FCEE9DEC984005FCEE9DFE0FD5F0E9E491
:1006F300CEFD22EDF8F5F0EE8420D21CFEADF075B0
:10070300F008EF2FFFED33FD4007985006D5F0F2C8
:1007130022C398FD0FD5F0EA22BB0110E58229F52B
:1007230082E5833AF583E0F5F0A3E0225009E92559
:1007330082F886F008E622BBFE0AE92582F8E2F594
:10074300F008E222E5832AF583E993F5F0A3E99320
:1007530022F8BB0111E58229F582E5833AF583E8A6
:10076300F0E5F0A3F0225009E92582C8F608A6F0C7
:1007730022BBFE09E92582C8F2E5F008F222E88FE0
:10078300F0A4CC8BF0A42CFCE98EF0A42CFC8AF012
:10079300EDA42CFCEA8EF0A4CDA8F08BF0A42DCC14
:1007A3003825F0FDE98FF0A42CCD35F0FCEB8EF06D
:1007B300A4FEA9F0EB8FF0A4CFC5F02ECD39FEE453
:1007C3003CFCEAA42DCE35F0FDE43CFC2275F00898
:1007D300758200EF2FFFEE33FECD33CDCC33CCC586
:1007E3008233C5829BED9AEC99E58298400CF582A1
:1007F300EE9BFEED9AFDEC99FC0FD5F0D6E4CEFB13
:10080300E4CDFAE4CCF9A88222B800C1B90059BA00
:10081300002DEC8BF084CFCECDFCE5F0CBF978182E
:10082300EF2FFFEE33FEED33FDEC33FCEB33FB1028
:10083300D703994004EB99FB0FD8E5E4F9FA227842
:1008430018EF2FFFEE33FEED33FDEC33FCC933C954
:1008530010D7059BE99A4007EC9BFCE99AF90FD85E
:10086300E0E4C9FAE4CCFB2275F010EF2FFFEE337E
:10087300FEED33FDCC33CCC833C810D7079BEC9ABD
:10088300E899400AED9BFDEC9AFCE899F80FD5F046
:10089300DAE4CDFBE4CCFAE4C8F922C3E49FFFE435
:1008A3009EFEE49DFDE49CFC22EB9FF5F0EA9E4254
:1008B300F0E99D42F0EC6480C864809845F022EB37
:1008C3009FF5F0EA9E42F0E99D42F0E89C45F02254
:1008D300E8600FECC313FCED13FDEE13FEEF13FF03
:1008E300D8F122E86010ECA2E713FCED13FDEE1340
:1008F300FEEF13FFD8F022E8600FEFC333FFEE33B0
:10090300FEED33FDEC33FCD8F122ECF0A3EDF0A3C4
:10091300EEF0A3EFF022A8828583F0D083D0821279
:100923000930120930120930120930E473E493A339
:10093300C583C5F0C583C8C582C8F0A3C583C5F008
:10094300C583C8C582C822A42582F582E5F0358314
:10095300F58322FAE6FB0808E6F925F0F618E6CA5D
:100963003AF622BB010789828A83020A235005E9EA
:10097300F8020A11BBFE05E9F8020A3589828A8367
:10098300020A47BB011A89828A83D0F0D0E0F8D0EB
:10099300E0F9D0E0FAD0E0FBE8C0E0C0F0020A2CB6
:1009A3005016E9F8D083D082D0E0F9D0E0FAD0E055
:1009B300FBC082C083020A1ABBFE16E9F8D083D0BB
:1009C30082D0E0F9D0E0FAD0E0FBC082C083020A13
:1009D3003E22D083D082F8E4937012740193700D99
:1009E300A3A393F8740193F5828883E47374029349
:1009F3006860EFA3A3A380DFC5F0F8A3E028F0C5E8
:100A0300F0F8E582158270021583E038F022E6FBE8
:100A130008E6FA08E6F922EBF608EAF608E9F62210
:100A2300E0FBA3E0FAA3E0F922EBF0A3EAF0A3E9E9
:100A3300F022E2FB08E2FA08E2F922EBF208EAF21A
:100A430008E9F222E493FB740193FA740293F92206
:100A5300E5652451F8E6056522784E3007027851A2
:100A6300E475F00112095602063B2000EB7F2ED2FB
:100A7300008018EF540F2490D43440D4FF30040B7B
:100A8300EF24BFB41A0050032461FFE5666002152A
:100A9300660569E5697002056830070D784EE475EF
:100AA300F001120956EF0206810235477403D2079B
:100AB3008003E4C207F5658B4E8A4F8950E4F566DF
:100AC300F568F569E56660077F20120A8E80F57583
:100AD30067FFC201C200C202C203C205C206C20846
:100AE300120A5CFF700D3007057F00120A9FAF6981
:100AF300AE6822B4255FC2D5C204120A5CFF24D0BB
:100B0300B40A00501A75F00A786630D50508B6FFA6
:100B13000106C6A426F620D5047002D20380D92488
:100B2300CFB41A00EF5004C2E5D204020D8CD201F7
:100B330080C6D20080C0D20280BCD2D580BAD20592
:100B430080B47F20120A8E2002077401B56600402C
:100B5300F1120A53FF120A8E020AC7D208D2068084
:100B630095120A53FB120A53FA120A53F94A4B70AD
:100B73000679837A0E7BFF20022EE566602A7E00CB
:100B83008E8275830012065460060EEE656770F060
:100B9300C2D5EBC0E0EAC0E0E9C0E0EE120DECD054
:100BA300E0F9D0E0FAD0E0FB12063BFF60AAEBC00D
:100BB300E0EAC0E0E9C0E0120A8ED0E02401F9D0F7
:100BC300E03400FAD0E0FBE5670460DCD567D98048
:100BD30087D20280A2120DCF60F7E567700104127D
:100BE30001A5A967600DE567600914F567120E7624
:100BF300EF60F3EA30E702F404C3995077EAF4258F
:100C0300670430E701E404F567800D120DCF60C17E
:100C1300EA056725671201A5EA7864F630E701E47F
:100C2300256704D5670420050114120DECE4C0E028
:100C3300120E767864E6601320E70714F6120A763C
:100C4300802204F6D0E014C0E07F00120A76E56744
:100C53006007120A6D1567800B300503120A6DD009
:100C6300E0020AC7D0E00480C5120DCF60A0E5679B
:100C7300041201A57864EAF6E56720050260010421
:100C83002404120DEC74FF04C0E0120E76120A76EF
:100C9300E5672005026003120A6DD0E0B567E87FBF
:100CA30045120A807864E67F2B30E7047F2DF40435
:100CB300C0E0120A8ED0E075F00A84C0F0120A7701
:100CC300D0E0120A77020AC7791080027908C206B7
:100CD300C2088008D2D5790A8004790AC2D5E567AB
:100CE300047002F567E4FAFDFEFF120A53FC7B0869
:100CF300200113120A53FD7B1030000A120A53FE1F
:100D0300120A53FF7B20EC3382D592D55013C3E4F0
:100D13003000069FFFE49EFEE42001039DFDE49C5A
:100D2300FCE4CBF8C201EC700CCFCECDCCE824F8B8
:100D3300F870F38017C3EF33FFEE33FEED33FDECB2
:100D430033FCEB33FB994002FB0FD8E9EB30010591
:100D5300F8D0E0C448B201C0E00AEC4D4E4F782011
:100D63007B0070C2EAB5670040BCC0E0120DEED054
:100D7300F0D0E0200104C4C0E0C4B201C0F0120A04
:100D830077D0F0D5F0EB020AC71209D50B64530CE8
:100D9300CB580B354C0B31420CCF4F0CD7440CD7EF
:100DA300490B4A430CDD550C0E460C6C450BD847DA
:100DB3000EA3500B392D0B3D2E0B602B0B41230B38
:100DC3005E200E8C2A0AF94800000B58E567B4FF31
:100DD30003756706120A53FC120A53FD120A53FEE7
:100DE300120A53FF785D0201D4790AA2D5200314B5
:100DF300300509B910020404B9080104A2D520067C
:100E0300025001042002689202B566005034C0E02B
:100E13007F203003197F30A20272067205500F1231
:100E23000E45C202C206C205C2087F30800F3005DC
:100E330003E9C0E0120A8E300503D0E0F9D0E0B533
:100E430066CC3005177F30B9100C120A8E7F5830EC
:100E530004077F788003B90803120A8E3002057FE6
:100E63002D020A8E7F202008F87F2B2006F3229282
:100E73000280CF7F00B407005005245DF8E6FF220F
:100E8300286E756C6C2900D201120A533001F8C226
:100E930001786630D50108F6020AF92D5043495806
:100EA300120A532403B405004001E4900E9E9312EA
:100EB3000A7F743A120A7FD203756604020CCBAF21
:100EC3006DAE6C1236158F6BE4F526F527AF27123E
:100ED3002CA30527E52770020526C39405E5269470
:100EE3000040EA301419E4F526F527122F420527AE
:100EF300E52770020526C39405E526940040ECC25D
:100F030000122E008F70EF3395E0FEEFF47002EEC7
:100F1300F460ECE57024FC606314603724FC6046E5
:100F230014601A24087067AF6BEF3395E0FED3EFBC
:100F33009400EE648094804055156B8051AF6BEF45
:100F43003395E0FEC3EF9404EE64809480503F0534
:100F53006B803B056AAF6AEF3395E0FEEF64034EA7
:100F6300702CF56A8028C2141237DE7BFF7A3C7935
:100F7300A612302E12378A1237D38012156AAF6A3F
:100F8300EF3395E0FEBEFF06BFFF03756A02AF7045
:100F9300EF3395E0FEEF64074E6006301403020E54
:100FA300E6301419E4F526F527122F420527E52725
:100FB30070020526C39405E526940040ECD2001286
:100FC3002E008F70EF3395E0FEEFF47002EEF460C5
:100FD300ECE57024FE602124F870030210DA04604B
:100FE3000302119BC2141237DE7BFF7A3C79A612EF
:100FF300302E12378A1237D3E56A14605014700307
:101003000210922402600302119BAF6BEF3395E051
:10101300FE74C12FF58274033EF583E004F074C1BE
:101023002FF58274033EF583E0FF3395E0FED3EFA3
:10103300943BEE64809480500302119BAF6BEF33BB
:1010430095E0FE74C12FF58274030210D2AF6BEFEB
:101053003395E0FE74CB2FF58274033EF583E004F1
:10106300F074CB2FF58274033EF583E0FF3395E0F4
:10107300FED3EF943BEE64809480500302119BAF48
:101083006BEF3395E0FE74CB2FF58274038040AF92
:101093006BEF3395E0FE74D02FF58274033EF58336
:1010A300E004F074D02FF58274033EF583E0FF3340
:1010B30095E0FED3EF9418EE648094805003021100
:1010C3009BAF6BEF3395E0FE74D02FF58274033E34
:1010D300F583E4F002119BE56A14604414607E24F6
:1010E30002600302119BAF6BEF3395E0FE74C12FD7
:1010F300F58274033EF583E014F074C12FF5827416
:10110300033EF583E03395E0C3648094804003029B
:10111300119BEF3395E0FE74C12FF5827403803584
:10112300AF6BEF3395E0FE74CB2FF58274033EF57E
:1011330083E014F074CB2FF58274033EF583E03320
:1011430095E0C364809480504FEF3395E0FE74CBF9
:101153002FF58274033EF583743BF0803BAF6BEF56
:101163003395E0FE74D02FF58274033EF583E014CB
:10117300F074D02FF58274033EF583E03395E0C31A
:10118300648094805012EF3395E0FE74D02FF58283
:1011930074033EF5837417F0AF70EF3395E0FEEF01
:1011A30064074E6006301403020FA4AF6DAE6C12D9
:1011B300366F123596AD6BAF6DAE6C1200261235DD
:1011C30096E56D2410FFE4356CFEE4FD1200261253
:1011D3003596E4F526F527AF27122C260527E527B4
:1011E30070020526C39405E526940040EA221235D1
:1011F3006E8F298E288D278C26E5352460F539E5F9
:101203003434F0F538E53334FFF537E53234FFF5A0
:1012130036AF39AE38AD37FCF8A905AA06AB0712CD
:101223000781780C1208E6A804A905AA06AB079063
:101233000379E0FEA3E0FFEE3395E0FDFC120781A6
:10124300780B1208E68F2D8E2C8D2B8C2A9003B4ED
:10125300E0FEA3E0FFEE3395E0FDFCAB39AA38A92D
:1012630037A836120781780B1208E68F318E308D3E
:101273002F8C2EE52D2531F53DE52C3530F53CE55C
:101283002B352FF53BE52A352EF53A9003B2E0FED8
:10129300A3E0FFEE3395E0FDFCE47B04FAF9F812DA
:1012A3000781EF253DFFEE353CFEED353BFDEC358B
:1012B3003AFCEF2402FFE43EFEE43DFDE43CFCE4A3
:1012C3007B04FAF9F81231488F418E408D3F8C3EF2
:1012D3009003B6E0FEA3E0FFEE3395E0FDFCAB39EF
:1012E300AA38A937A836120781780D1208E68F2D80
:1012F3008E2C8D2B8C2AAF39AE38AD37AC36AB394B
:10130300AA38A937A836120781780C1208E6A80470
:10131300A905AA06AB07900377E0FEA3E0FFEE332F
:1013230095E0FDFC12078178101208E68F318E30AC
:101333008D2F8C2EE52D2531FFE52C3530FEE52B49
:10134300352FFDE52A352EFCEF2402FFE43EFEE4B3
:101353003DFDE43CFC78021208E68F3D8E3C8D3B5C
:101363008C3AE4253DFFE53C3480FEE4353BFDE467
:10137300353AAB07AA06A905F89003B8E0FEA3E047
:10138300FFE4FCFD120781780F1208D38F498E48C2
:101393008D478C46C3E5299541FFE5289540FEE539
:1013A30027953FFDE526953EFCE47B507AC3F9F88B
:1013B3001207818F4D8E4C8D4B8C4AE4FFFEFD7CD2
:1013C30080AB4DAA4CA94BA84AC31208C25018E4DB
:1013D3007F02FEFDFCA84A120781AB49AA48A94730
:1013E300A84612080C801CAB49AA48A947A846AFD7
:1013F3004DAE4CAD4BAC4A12080CE47B02FAF9F843
:101403001207818F458E448D438C42AF45AE44AD68
:1014130043AC4278081208E6C004C005C006C00702
:10142300AF45AE44AD43AC4278081208E6D003D0D2
:1014330002D001D0001207818F2D8E2C8D2B8C2A88
:10144300E47FDE7E0BFDFCAB2DAA2CA92BA82A1270
:10145300078178101208E68F2D8E2C8D2B8C2A7F16
:10146300437EE37DFF7CFFAB45AA44A943A8421218
:10147300078178101208E68F318E308D2F8C2EE580
:101483002D2531FFE52C3530FEE52B352FFDE52AE3
:10149300352EFCEF24CFFFEE340EFEE43DFDE43C9D
:1014A300FC78041208E6EF2545F50BEE3544F50A02
:1014B300ED3543F509EC3542F508AF0BAE0AAD093E
:1014C300FC227523FF7FD07E071233E21225EA1236
:1014D30036FA123689121CDD1237DE7BFF7A397930
:1014E300DB12302E12378A7FE87E031233E27BFF52
:1014F3007A3A790712302E12378AE4F51F122862DE
:101503001200031233781234CA301403021649AF9F
:1015130018EF3395E04F600302164930100512347B
:10152300CAC210300F0B1233051224621237D3C212
:101533000F301108C211122734122E70300E3412DC
:1015430037607F0112000E8F25C3EF94647480947B
:1015530080501E30091B1237E5751D00751E0F12D2
:1015630037DE7BFF7A39790212302E12378A7518EB
:1015730001C20EC200122E008F23EF3395E0FEEF5F
:10158300F47002EEF47003021625EF64034E70212B
:10159300B287D20C751C071236B8122D181233DE1F
:1015A300122D181233DE7BFF7A3A7908122E7080DF
:1015B30044AF23EF3395E04F7012B287D20A12364D
:1015C300CE122D8C1233DE122D8C8029AF23EF33F4
:1015D30095E0FEEF64014E7021B287C20A1236CE47
:1015E3007BFF7A397942122D921233DE7BFF7A39EF
:1015F3007942122D921233DE8028AF23EF3395E028
:10160300FEEF64064E700CB287B2091236E412374D
:10161300D3800FAF23EF3395E0FEEF64094E7002E2
:10162300B214AF1CEF3395E04F700AB287C20C754A
:101633001CFF1236B8200B0302150C121A31E4F505
:101643001FC20B02150C20142BAF18EF3395E0FECD
:10165300EF64014E701EC200122E00EF3395E0FEC0
:10166300EFF47002EEF4700302150C7518021237D2
:10167300CC02150C20143CAF18EF3395E0FEEF6459
:10168300024E702F7BFF7A3A791112302E12378A6D
:101693001237D31224621237D31234CAE4F51890E6
:1016A30001DAE0FCA3E0FDA3E0FEA3E0FF1216DBFA
:1016B30002150CE52470151237DE7BFF7A3A792E7A
:1016C30012302E12378A1237D3752401122B1F12B0
:1016D3000EC2122B1F02150C8F2E8E2D8D2C8C2BD0
:1016E3007B807A5179017800123148EF2401F53378
:1016F300E43EF532E43DF531E43CF5307B807A514C
:1017030079017800AF2EAE2DAD2CAC2B123148AC45
:1017130000AD01AE02AF038F378E368D358C34E5C5
:101723003324FCFFE53234FFFEE53134FFFDE530C1
:1017330034FFFCE47B07FAF9F81231489001D9EB46
:10174300F09000037407F0A374E5F012346EAB0756
:10175300E5332493FFE53234FEFEE53134FFFDE546
:101763003034FFFCC3EF9BFFEE9400FEED9400FDCD
:10177300EC9400FCE4FBFAF9F8C31208AC50329085
:101783000004E004F07006900003E004F012346EED
:10179300EF246DFFE43401FAC3E5339FF533E532FB
:1017A3009AF532E5319400F531E5309400F5308057
:1017B3009A12346EEF9001CE6005741DF0800374AD
:1017C3001CF09000027401F0E4F52FC3E52F940C94
:1017D30074809480505974CD252FF582E43401F53B
:1017E30083E0FBC3E5339BFFE5329400FEE53194D0
:1017F30000FDE5309400FCE4FBFAF9F8C31208ACF1
:10180300502D74CD252FF582E43401F583E0FBC31D
:10181300E5339BF533E5329AF532E53199F531E558
:10182300309400F530900002E004F0052F809C9086
:1018330001C7E533F0E47B107A0EF9F8AF37AE3623
:10184300AD35AC341231489001C8EFF0AF37AE3646
:10185300AD35AC34E47B107A0EF9F8123148AC00A4
:10186300AD01AE02AF038F378E368D358C34E47BFA
:101873003CFAF9F8123148900001EFF0AF37AE3679
:10188300AD35AC34E47B3CFAF9F8123148AC00AD29
:1018930001AE02AF038F378E368D358C34E47B3C3B
:1018A300FAF9F8123148900000EBF022C0E0C0F0E2
:1018B300C083C082C0D075D000C000C001C002C0C8
:1018C30003C004C005C006C007758CDC758A2A9066
:1018D30001C9E0FCA3E0FDA3E0FEA3E0FFE4FAF905
:1018E300F8EF2401FFEA3EFEE93DFDE83CFC9001F0
:1018F300C912090DE47B64F89001C9E0FCA3E0FD83
:10190300A3E0FEA3E0FF123148AC00AD01AE02AF8D
:1019130003EC4D4E4F705EB2909001DAE0FCA3E011
:10192300FDA3E0FEA3E0FFE4FAF9F8EF2401FFEAE8
:101933003EFEE93DFDE83CFC9001DA12090DD20FB1
:10194300D3E51E9400E51D94004008E51E151E70A6
:1019530002151DAF1CEF3395E0FED3EF9400EE6448
:101963008094804002151CE51E6401451D7006121B
:1019730037CC751802E47B2C7A01F9F89001C9E0A1
:10198300FCA3E0FDA3E0FEA3E0FF123148AC00ADF1
:1019930001AE02AF03EC4D4E4F7002D20EE47BF466
:1019A3007A01F9F89001C9E0FCA3E0FDA3E0FEA3EE
:1019B300E0FF123148AC00AD01AE02AF03EC4D4E77
:1019C3004F7002D210E47BE87A03F9F89001C9E082
:1019D300FCA3E0FDA3E0FEA3E0FF123148AC00ADA1
:1019E30001AE02AF03EC4D4E4F7002D2117F407E29
:1019F300427D0F7C009001C9E0F8A3E0F9A3E0FA6F
:101A0300A3E0FBC31208AC400A9001C912091900F4
:101A1300000000D007D006D005D004D003D002D0F8
:101A230001D000D0D0D082D083D0F0D0E032752E58
:101A3300FF752F387530E4E51F24FEF53175320646
:101A43007B017A0379121228F25013B287D20C1257
:101A530036B8122D181233DE122D181233DE752EFE
:101A6300FF752F387530F2E51F24FEF53175320608
:101A73007B017A0379121228F25034B2877BFF7A02
:101A83003879F9122E707FC87E001233E2200903E1
:101A9300021B991237E5751D00751E0F1237DE7B89
:101AA300FF7A39790212302E12378A75180122759E
:101AB3002EFF752F3975301FE51F24FEF531753262
:101AC300077B017A0379121228F25007B287C20CFE
:101AD3000236B8752EFF752F39753027E51F24FEA2
:101AE300F5317532077B017A0379121228F250150A
:101AF300B287D20A1236CE122D8C1233DE7BFF7AD6
:101B030039792F8036752EFF752F39753037E51FDC
:101B130024FEF53175320A7B017A0379121228F219
:101B23005023B287C20A1236CE7BFF7A397942122A
:101B33002D921233DE7BFF7A397942122D927FF494
:101B43007E010233E2752EFF752F3975304BE51F89
:101B530024FEF5317532057B017A0379121228F2DE
:101B6300500C7B017A037912121F3AB28722752E29
:101B7300FF752F39753051E51F24FEF53175320697
:101B83007B017A0379121228F2500B7BFF7A3979A1
:101B930058122E70B287228F328E318D308C2FE403
:101BA300753801F537F536F535AF33EF3395E0FE8C
:101BB300BEFF3CBFFF39753301AB38AA37A936A83E
:101BC30035AF32AE31AD30AC2F123148EC4D4E4F04
:101BD30060740533AF38AE37AD36AC35E47B0AFA03
:101BE300F9F81207818F388E378D368C3580CAE429
:101BF300F534AF33EF3395E0FEC3E5349FEE6480F5
:101C0300F8748098501DAF38AE37AD36AC35E47BF1
:101C13000AFAF9F81207818F388E378D368C35051D
:101C23003480CFAF32AE31AD30AC2FAB38AA37A949
:101C330036A835123148AC00AD01AE02AF038F3286
:101C43008E318D308C2FE4F534AF38AE37AD36ACF2
:101C5300358061AF38AE37AD36AC35EC4D4E4F60A5
:101C630065AB38AA37A936A835AF32AE31AD30AC43
:101C73002F123148EF2430FFAE34053474A62EF50D
:101C830082E43402F583EFF0AF32AE31AD30AC2FE6
:101C9300AB38AA37A936A835123148AC00AD01AE2E
:101CA30002AF038F328E318D308C2FAF38AE37AD0C
:101CB30036AC35E47B0AFAF9F81231488F388E379F
:101CC3008D368C35808D74A62534F582E43402F587
:101CD30083E4F07B017A0279A622E4F529F528F55D
:101CE30027F526752A0E7BFF7A3979611232CA12DB
:101CF30037337BFF7A39796F1232CA1237337BFF5E
:101D03007A39799C1232CA1237337BFF7A3979B226
:101D1300122E70300BFDAF1F051F74122FF582E4D6
:101D23003403F583E4F0752EFF752F397530B9E56B
:101D33001F24FEF5317532047B017A0379121228D0
:101D4300F24003021DE37412252AF582E43403F5FD
:101D530083E0FF640D6051EF604EE47F0AFEFDFCFB
:101D6300AB29AA28A927A826120781A804A905AA8E
:101D730006AB077412252AF582E43403F583E0FFEA
:101D8300E4FCFDFEEB2FFFEE3AFEED39FDEC38FCF3
:101D9300EF24D0F529EE34FFF528ED34FFF527ECD9
:101DA30034FFF526052A809EAF29AE28AD27AC2641
:101DB3001236A11237DE7BFF7A3979BE12302E7BC1
:101DC300FF7A3979C612302E7B017A0379121230E9
:101DD3002E7BFF7A3979D412302E12378A0237D309
:101DE300C20BE4F51F1237DE7BFF7A3979BE12305E
:101DF3002E7BFF7A3979C612302E7B017A03791252
:101E030012302E7BFF7A3979D412302E12378A02A0
:101E13001D16851527851628851729AB27AA28A9F6
:101E230029120966E94A4B7003021EC2AB27AA288E
:101E3300A9291209668B278A28892990000312068B
:101E430054FF20E0D6900004120654FE9001C8E02F
:101E5300B506C8900005120654FE900001E0B506D1
:101E6300BA900006120654FE900000E0B506ACEFEF
:101E73005406701D1237E2751D00751E0F1237DEF2
:101E83007BFF7A3B794012302E12378A7518018016
:101E93008AAB27AA28A92990000312065454066482
:101EA300026003021E1E9001D9E0C394057480945E
:101EB300804003021E1E751D00751E03021E1EE4D4
:101EC300F526C3E5269405748094805069E5269031
:101ED3003BE993FF9001C8E06F7057E526903BEE16
:101EE30093FF900001E06F7049900000E070439011
:101EF30001D9E0FFC3940574809480503575F05A7E
:101F0300EFA42405F582E5F03400F58375F012E5BE
:101F13002612094AE0601B1237E8751D00751E0F73
:101F23001237DE7BFF7A3B795D12302E12378A75CA
:101F330018010526808C228B268A2789287529FF7C
:101F4300752AFFE4F52CAB26AA27A928852C8275D0
:101F53008300120654700302205C643B600302207A
:101F630045AF29EF3395E0FEBEFF0CBFFF09E52B1C
:101F730024D0F529022045AF2AEF3395E0FEEFF494
:101F83007002EEF46003022045052CE52B24D0F506
:101F93002AE4F52DAB26AA27A928852C8275830070
:101FA300120654FF643B6053EF6050AF2C052C8F37
:101FB30082758300120654FFE529FD3395E0FC90FA
:101FC300000575F05AED12094AEC75F05AA4258301
:101FD300F583E52AFD3395E0FC75F012ED12094A0D
:101FE300EC75F012A42583F583AE2D052DE5822E25
:101FF300F582E43583F583EFF08099AF29EF3395CC
:10200300E0FE90000575F05AEF12094AEE75F05A9A
:10201300A42583F583AF2AEF3395E0FE75F012EF25
:1020230012094AEE75F012A42583F583AF2D052D11
:10203300E5822FF582E43583F583E4F0752AFF7595
:1020430029FFAB26AA27A928AF2C052C8F827583DD
:1020530000120654F52B021F49228F2A8E298D2840
:102063008C277BA07A8679017800123148EF2430DF
:10207300900376F0AF2AAE29AD28AC277BA07A86F1
:1020830079017800123148AC00AD01AE02AF038F85
:102093002A8E298D288C27E47B107A27F9F81231B0
:1020A30048EF243090037EF0AF2AAE29AD28AC2749
:1020B300E47B107A27F9F8123148AC00AD01AE0287
:1020C300AF038F2A8E298D288C27E47BE87A03F9C6
:1020D300F8123148EF243090037BF0AF2AAE29ADDC
:1020E30028AC27E47BE87A03F9F8123148AC00AD59
:1020F30001AE02AF038F2A8E298D288C27E47B64DF
:10210300FAF9F8123148EF243090037CF0AF2AAE8D
:1021130029AD28AC27E47B64FAF9F8123148AC0006
:10212300AD01AE02AF038F2A8E298D288C27E47B65
:102133000AFAF9F8123148EF243090037DF0AF2A00
:10214300AE29AD28AC27E47B0AFAF9F8123148AC82
:1021530000AD01AE02AF038F2A8E298D288C27EFA5
:102163002430900388F0228F2C8D2D8B2EE56B6508
:102173002C60030221F9E56A652D707A7BFF7A3CB6
:10218300798212302E74BE252DF582E43403F58353
:10219300E0FFE4FCFDFE7533FF121B9A12302E7B29
:1021A300FF7A3C799112302E74C6252CF582E434E3
:1021B30003F583E0FFE4FCFDFE7533FF121B9A1267
:1021C300302E7BFF7A3C799312302EAF2EE4FCFD48
:1021D300FE753302121B9A12302ED3E52D94007430
:1021E30080948040097BFF7A3C799612302E7BFFE6
:1021F3007A3C799880787BFF7A3C798212302E740E
:10220300BE252DF582E43403F583E0FFE4FCFDFEF7
:102213007533FF121B9A12302E7BFF7A3C79911291
:10222300302E74C6252CF582E43403F583E0FFE4F5
:10223300FCFDFE7533FF121B9A12302E7BFF7A3C96
:10224300799312302EAF2EE4FCFDFE753302121B80
:102253009A12302ED3E52D94007480948040097B2C
:10226300FF7A3C799612302E7BFF7A3C799F1230AD
:102273002E22EF4E70030223789003D7E07002A35F
:10228300E07003022378CDEFCDCCEECCED24FCFD42
:10229300EC34FFFC7532037533D585338285328385
:1022A300E0FAA3E08A34F53545346011D3E5359F70
:1022B300E5349E500885343285353380DDE5354578
:1022C30034604A8D828C83A3A3E0FAA3E02FFFEA54
:1022D3003EFEEF65357003EE6534703185358285DA
:1022E3003483A3A3E0FEA3E02404FFE43E8D828CA9
:1022F30083A3A38FF01209FB853582853483E0FF26
:10230300A3E08D828C83CFF0A3EFF0800B8D828CC2
:1023130083E534F0A3E535F0853382853283A3A3C7
:10232300E0FEA3E02533FFEE3532FEEF2404FFE4A5
:102333003EFEEF6D7002EE6C70308D828C83A3A332
:10234300E0FEA3E02404FFE43E853382853283A3C9
:10235300A38FF01209FB8D828C83E0FFA3E085330A
:1023630082853283CFF0A3EFF022853382853283D7
:10237300ECF0A3EDF022C10BC10DC10CC10AC109E0
:10238300011F00017700C1124802A6313009313123
:1023930031000001140049037F3131313131310DF6
:1023A3000A006023038F000000000000000000000B
:1023B300000000000000000000000000000000001A
:1023C3000000000000000000004401C900000000FC
:1023D3004401DA00F4539E4C01CD1F1C1F1E1F1E27
:1023E3001F1F1E1F1E1F42000307E5410002054178
:1023F30001C7184101C80C41000100410000004120
:1024030001D900C10FC110011CFF011800C10EC189
:1024130011021D0000017803047103040506C113B2
:10242300C114016B004303BEF0CDAA4503C6415A54
:10243300738CA54503D000000000004503CB0000CA
:102443000000004503C10000000000026C00000210
:102453006E02004803D500000000000000000012D7
:1024630037DE7BFF7A3B797A12302E9001C8E0FF8A
:10247300E4FCFDFE753302121B9A12302E7BFF7AA9
:102483003A79AB12302E900001E0FFE4FCFDFE75BB
:102493003302121B9A12302E7BFF7A3A79AB123039
:1024A3002E900000E0FFE4FCFDFE753302121B9A40
:1024B30012302E7BFF7A3B793912302E7BFF7A3B29
:1024C300799012302E900002E0FFE4FCFDFE75339C
:1024D300FF121B9A12302E7BFF7A3B799E12302E0D
:1024E3009001C7E0FFE4FCFDFE7533FF121B9A1257
:1024F300302E7BFF7A3B79A112302E7BFF7A3B791A
:10250300AA12302E9001D9E075F007A424B8F9740B
:102513003B35F0FA7BFF12302E7BFF7A3B79391281
:10252300302E02378A1236358F298E288D278C2636
:102533009003BCE0FEA3E0FBC3E5299BFBE5289EDB
:10254300FAE5279400F9E5269400F89003BAE0FE33
:10255300A3E0FFE4FCFD120781780F1208E68F2D3C
:102563008E2C8D2B8C2A90038BE0FEA3E0FFEE33A1
:1025730095E0FDFC780B1208FAC004C005C006C044
:1025830007A3E0FEA3E0FFEE3395E0FDFCEF252D6E
:10259300FBEE352CFAED352BF9EC352AF8D007D0C4
:1025A30006D005D0041231488F318E308D2F8C2EFA
:1025B300E52D2531F535E52C3530F534E52B352F73
:1025C300F533E52A352EF532E5352408FFE43534B5
:1025D300FEE43533FDE43532FC78041208E68F0F50
:1025E3008E0E8D0D8C0C22438901758CDC758A2A25
:1025F300D2AFD2A9D28CD2AF7E017FDE7DC87C0060
:1026030012328E7F097E00122698AA06A9077B0143
:102613008B158A168917900007E4F5F01207548B7F
:10262300198A1A891B1B7A007900C003C002C001F2
:10263300AB19AA1AA91B120986E4F52D7B147D3266
:102643007F07122A0BE4FFEFC39405748094805034
:102653002AE4FEEEC3940574809480501B75F05AEF
:10266300EFA42405F582E5F03400F58375F012EE4E
:1026730012094AE4F00E80DB0F80CC7BFF7A3A79B3
:1026830098121F3A9001DAE0FCA3E0FDA3E0FEA359
:10269300E0FF0216DB8E318F327E037FD58F828E71
:1026A30083E0FCA3E0FD4C7003FEFF228D828C834C
:1026B300A3A3E0FAA3E0FBC39532EA95315008CE19
:1026C300ECCECFEDCF80D6C3EB9532F534EA95311E
:1026D300F533C3E5349410E533940050198D828C9F
:1026E30083E0FBA3E08F828E83CBF0A3EBF0ED249A
:1026F30004FFE43CFE2274FC2534F53474FF3533C7
:10270300F5338D828C83A3A3F0A3E534F0ED240489
:10271300FFE43CFEEF2534FFEE3533FE8F82F58375
:10272300A3A3E531F0A3E532F0EF2404FFE43EFE7A
:102733002212318C7551FF75523C755378755401D3
:1027430075550375567F7B017A03798F120AAF1291
:1027530031CE7551FF75523C75537C7554017555D7
:102763000375568F75570175580375597F7B017A29
:1027730003798F120AAF1232107551FF75523C75EF
:10278300537C75540175550375568F7557017558EC
:102793000375597F7B017A03798F120AAF1230BE1A
:1027A3007551FF75523C75537C755401755503750E
:1027B300568F75570175580375597F7B017A0379D5
:1027C3008F120AAF7B017A03798F22E4FCC2A21233
:1027D300377DD2A21237D97F5030A206AE071FEE43
:1027E30070F7EF700280467FFA20A206AE071FEE55
:1027F30070F7EF700280367FFA30A206AE071FEE45
:1028030070F7EF70028026E4FEEEC39405748094A3
:10281300805041E4FDEDC3940874809480502D7F73
:102823009620A206AB071FEB70F7EF7004D2A2FF4E
:1028330022E4FF30A2040FEF70F9EC25E0FCEFD3A4
:10284300941E7480948040010C0D80C9EE70028C3C
:10285300140E80B51237D91237D9D2A2AF14227F02
:10286300AA12310C9003B2EEF0A3EFF07FAC123159
:102873000C9003B4EEF0A3EFF07FAE12310C900393
:10288300B6EEF0A3EFF07FB012310C9003B8EEF088
:10289300A3EFF07FB212310C9003BAEEF0A3EFF086
:1028A3007FB412310C9003BCEEF0A3EFF07FB612AD
:1028B300310C900377EEF0A3EFF07FB812310C9058
:1028C3000379EEF0A3EFF07FBA12310C900389EE97
:1028D300F0A3EFF07FBC12310C90038BEEF0A3EF6B
:1028E300F07FBE12310C90038DEEF0A3EFF0228B3C
:1028F3002B8A2C892DE4F533F534C3E5326480F853
:10290300E5316480985002C322E4F533AF32EF33EC
:1029130095E0FEAD31ED3395E0FCC3ED9FFFEC9EFA
:10292300FED3E5339FEE6480F8748098504CE4F551
:1029330034AF32EF3395E0FEC3E5349FEE6480F8A5
:10294300748098502AE5342533F582E433F583AB5C
:102953002BAA2CA92D120654FFAB2EAA2FA9308522
:102963003482758300120654B50704053480C2E52A
:1029730032B53402D32205338092C322787FE4F642
:10298300D8FD7581780229C60214C5E493A3F8E43F
:1029930093A34003F68001F208DFF48029E493A3B4
:1029A300F85407240CC8C333C4540F4420C88340CD
:1029B30004F456800146F6DFE4800B01020408109C
:1029C300204080902379E47E019360BCA3FF543FB1
:1029D30030E509541FFEE493A360010ECF54C025D4
:1029E300E060A840B8E493A3FAE493A3F8E493A3C4
:1029F300C8C582C8CAC583CAF0A3C8C582C8CAC528
:102A030083CADFE9DEE780BE8F2A8D2B8B2C7F09FB
:102A13007E00122698AA06A907752E018A2F8930EF
:102A2300AB2EC003C002C001AB19AA1AA91B12091D
:102A330086AB2EAA2FA930900004E52A12069390A4
:102A43000005E52B120693900006E52C12069390E1
:102A53000003E52D1206937B007A007900C003C0C2
:102A630002C001AB2EAA2FA930120986AB19AA1AEC
:102A7300A91B90000712071C2401FFE435F0AB2EBD
:102A8300AA2FA9309000078FF01207548B198A1AC6
:102A9300891B228E2A8F2B85152C85162D85172EA3
:102AA300AB2CAA2DA92E120966E94A4B606DAB2CFB
:102AB300AA2DA92E12096690000712071C652B7018
:102AC30004E5F0652A70438B2F8A308931E5198537
:102AD3001A83851B826B7008E965827003EA65833C
:102AE3007009852C19852D1A852E1BAB2FAA30A9A9
:102AF30031120966C003C002C001AB2CAA2DA92E56
:102B0300120986AE30AF31022275AB2CAA2DA92E45
:102B13001209668B2C8A2D892E808522752601C386
:102B2300E526940674809480500BAF267E00122A0B
:102B330096052680EAE4F526C3E526940574809479
:102B430080505EE52675F003A4FF256DCFE56C3557
:102B5300F0CF2401CF3400FE1236158F27E52675FA
:102B6300F003A4FF256DCFE56C35F0CF2402CF34FD
:102B730000FE1236158F29E52675F003A4FF256D97
:102B8300CFE56C35F0CF2403CF3400FE1236158F1A
:102B930028E4F52DAB28AD29AF27122A0B05268093
:102BA3009722C0E0C083C082C0D075D000C004C0EB
:102BB30005C006C007C298AF99200B56E51FC39402
:102BC30064748094804005C20D751F00BF2C027F82
:102BD3002EAE1F051F74122EF582E43403F583EF26
:102BE300F0300D1A640A700FE51FD39402748094B9
:102BF300804004D20B8003751F00C20D8014EFFDCB
:102C03007C00640D7004D20D8008ED640A4C7002E0
:102C1300F51FD007D006D005D004D0D0D082D08302
:102C2300D0E0328F28EF75F003A4FF256DCFE56C5C
:102C330035F0CF2401CF3400FE74D02528F582E48B
:102C43003403F583E0FD120026123596E52875F06E
:102C530003A4FF256DCFE56C35F0CF2402CF3400FC
:102C6300FE74CB2528F582E43403F583E0FD1200DE
:102C730026123596E52875F003A4FF256DCFE56C84
:102C830035F0CF2403CF3400FE74C12528F582E448
:102C93003403F583E0FD1200267F327E0002359A6D
:102CA3008F28EF75F003A4FF256DCFE56C35F0CFCA
:102CB3002401CF3400FE12361574D02528F582E4A2
:102CC3003403123592E52875F003A4FF256DCFE593
:102CD3006C35F0CF2402CF3400FE12361574CB25A9
:102CE30028F582E43403123592E52875F003A4FF36
:102CF300256DCFE56C35F0CF2403CF3400FE1236BB
:102D03001574C12528F582E43403F583EFF07F328F
:102D13007E0002359A7BFF7A3879EB8B268A2789E6
:102D230028E4F529F52A782B7C00FD7BFF7A3A7994
:102D33003EFE7F1E120615AB26AA27A928052AE503
:102D43002AAE297002052914F5828E831206547067
:102D5300E6E52A152A700215297551FF7552387553
:102D630053AE852954852A557B007A00792B120AA4
:102D7300AF7B007A00792B1232CA123733AB26AA03
:102D830027A9281232CA0237337BFF7A39792F8B6E
:102D9300268A278928E4F529F52A782B7C00FD7BF0
:102DA300FF7A3A795CFE7F1E120615AB26AA27A985
:102DB30028052AE52AAE297002052914F5828E8397
:102DC30012065470E6E52A152A700215297551FF7B
:102DD3007552387553C0852954852A557B007A006E
:102DE300792B120AAF7B007A00792B1232CA123781
:102DF30033AB26AA27A9281232CA02373378287C94
:102E0300007D007BFF7A00790A7E007F01120615A0
:102E13007CFF2087027C7FE4FBEBC39403748094E4
:102E23008050477FEFA803EF08800123D8FD5CF5AE
:102E330080E4FAEAC3940474809480502AAD02E4D7
:102E4300FF123250401E1237AEE4FF1232504014CC
:102E5300200009AD02E4FF12325050F7EA75F00387
:102E6300A42BFF220A80CC0B80AF7FFF228B2B8AFF
:102E73002C892DE4F52EF52F78307C00FD7BFF7A2D
:102E83003A797AFE7F1E120615AB2BAA2CA92D05C3
:102E93002FE52FAE2E7002052E14F5828E831206B7
:102EA3005470E6E52F152F7002152E7551FF7552DC
:102EB300387553D2852E54852F557B007A0079308F
:102EC300120AAF7B007A0079301232CA123733AB61
:102ED3002BAA2CA92D1232CA0237331237517F473E
:102EE3001234F4E4F527C3E52794037480948050E7
:102EF3001D12351E74282527F8A607E527640370DD
:102F030004D2008002C20012376F052780D812371F
:102F1300967F057E0012349EAF28EFFE7C00E425E9
:102F230029FFEC3EFEAD07FC1200EB7B9A7A997900
:102F330099783F1200498F138E128D118C1022AF96
:102F43002774D02527F58274033526F583E0FD74B5
:102F5300CB2527F58274033526F583E0FB74C12561
:102F630027F58274033526F583E0F52B8F288D2909
:102F73008B2A1237DEAB297D02AF2812216AAB2AD6
:102F83007D01AF2812216AAB2BE4FDAF2812216A21
:102F930012378A0237D3C0E0C0F0C083C082C0D0EA
:102FA30075D000C000C001C002C003C004C005C08A
:102FB30006C0077FFF1235D5EF600CE4FF1235D54D
:102FC300E59BB40A02C212D007D006D005D004D0C4
:102FD30003D002D001D000D0D0D082D083D0F0D0A3
:102FE300E032123722122EDE1230BE1237DE7BFFA2
:102FF3007A3C793612302EAF260526747F2FF58260
:10300300E43403F583E0643060ED1526E490038532
:10301300F0747F2526F9E43403FA7B0112302E7B0A
:10302300FF7A3C794E12302E02378A8B2F8A3089F1
:1030330031E4FFFEAB2FAA30A931AD060E8D8275A8
:10304300830012065470EDFFEE14FDEFC39D502272
:10305300AB2FAA30A9318F82758300120654FDACC1
:1030630077057774AE2CF582E43402F583EDF00F27
:1030730080D62212252812318C1237DE7BFF7A3B51
:1030830079F312302E7B017A0379827D0112340E9B
:103093007B017A0379837D0112340E7BFF7A3C79BD
:1030A3000912302E7B017A0379847D0112340E7B61
:1030B300FF7A3C790B12302E02378AAF13AE12AD72
:1030C30011AC1012012412205D900388E090038458
:1030D300F090037DE0900383F090037CE090038203
:1030E300F090037BE0900381F090037EE0900380F7
:1030F300F0900376E090037FF07B017A03797F22DF
:103103007F0A7E0012349E7FF68F4E1237517FEE78
:103113001234F4AF4E1234F41237517FEF1234F4F9
:1031230012351E8F4FC20012376F12351E8F50D2C9
:103133000012376F1237967F057E0012349EE54FDB
:10314300FEE550FF22C2D5E830E70FB2D5E4C39BBA
:10315300FBE49AFAE499F9E498F8EC30E717B2D56E
:1031630012317E12080CE4C39BFBE49AFAE499F94A
:10317300E498F8800312080C30D50DE4C39FFFE4F4
:103183009EFEE49DFDE49CFC22AF0FAE0EAD0DACA4
:103193000C12205D900388E0900384F090037DE09F
:1031A300900383F090037CE0900382F090037BE034
:1031B300900381F090037EE0900380F0900376E02B
:1031C30090037FF07B017A03797F22AF0BAE0AADC8
:1031D30009AC0812205D900388E0900384F090030B
:1031E3007DE0900383F090037CE0900382F09003F2
:1031F3007BE0900381F090037EE0900380F09003E6
:1032030076E090037FF07B017A03797F22AF14E4A9
:10321300FCFDFE12205D900388E0900384F0900390
:103223007DE0900383F090037CE0900382F09003B1
:103233007BE0900381F090037EE0900380F09003A5
:1032430076E090037FF07B017A03797F22AE05A8B5
:10325300067401088002C333D8FCFEEF1460121415
:10326300601714601C24037020E5805ED37001C3D3
:1032730022E5905ED37001C322E5A05ED37001C343
:1032830022E5B05ED37001C322C322EF4E7008FE65
:103293007F01ED1D70011C9003D5EEF0A3EFF0A3A9
:1032A300ECF0A3EDF09003D5E0FEA3E0FFF5828EF2
:1032B30083E4F0A3F0ED24FCFDEC34FF8F828E83D6
:1032C300A3A3F0A3EDF0228B4E8A4F8950E4FFAB0A
:1032D3004EAA4FA950AE070F8E8275830012065473
:1032E30070ED1FFEEEC39F5018AB4EAA4FA9508E30
:1032F30082758300120654F5993099FDC2990E80A8
:10330300E322900000E0C3943B74809480500280D9
:1033130013900001E0C3943B74809480500BE490BD
:103323000000F0A3E004F080119001DAE0FCA3E0D8
:10333300FDA3E0FEA3E0FF1216DB021E151211F13E
:103343001231CE1237DE7BFF7A3C791412302E9085
:103353000382E0A3F0900382742EF0E4900384F0E0
:103363007B017A03797F12302E7BFF7A3C792C1212
:10337300302E02378AE56D2410FFE4356CFE1236D9
:1033830015EF6025E4F526C3E52694117480948037
:1033930050177E00E56D2526FFEE356CFEE4FD1229
:1033A3000026123596052680DE22E4FEFF1235B58F
:1033B300EEC39577501D74AE2EF582E43402F58387
:1033C300E0F59B7FFF1235F5EF60F8E4FF1235F56A
:1033D3000E80DD7F011235B50237DE7FF47E01E416
:1033E300FDFCC3ED9FEC9E5021E4FBFA900000A38B
:1033F300E582645F458370F70BBB00010AEB640A47
:103403004A70E90DBD00010C80D8228B268A2789DA
:1034130028E4FFEFC39D5022AB26AA27A9288F8259
:10342300758300120654FEAC77057774AE2CF582D3
:10343300E43402F583EEF00F80D9221227CEEF6039
:10344300291232101237DE7BFF7A3C795912302E63
:10345300E4900385F07B017A03798312302E7BFF9E
:103463007A3C797012302E12378A22900003E0FEE4
:10347300A3E0FFAB07AA06EB5403700AFC7D6412BA
:1034830006C7ED4C700FAE02AF037C017D901206B0
:10349300C7ED4C70037F01227F0022E4FDFCC3EDE6
:1034A3009FEC9E5021E4FBFA900000A3E582645F49
:1034B300458370F70BBB00010AEB640A4A70E90D00
:1034C300BD00010C80D8221230761237D31233405C
:1034D3001237D3122FE51237D312343E1237D312D9
:1034E30036B81237D31236CE1237D31236E4023738
:1034F300D3AE07E4FDEDC39408748094805016EEB8
:1035030025E0FEC2A112374992A0123749D2A11277
:1035130037490D80E01237420237B9123742E4FDD2
:10352300EDC39408748094805017D2A1123749EEEA
:1035330025E0FFA2A0E4334FFEC2A11237490D805C
:10354300DFAF0622EFB40A07740D123552740A3046
:103553009811A899B8130CC2983098FDA899C298ED
:10356300B811F63099FDC299F599227F007E007D4E
:10357300007C001237517FEE1234F47FF41234F4DE
:103583007F341234F4123796123103E4FDFC22F532
:1035930083EFF07F327E00E4FDFCC3ED9FEC9E5091
:1035A3001000790A7BBEDBFED9FC0DBD00010C8047
:1035B300E922EFFD3395E0FCBCFF09BDFF06E5AF53
:1035C3005401FF22EF600543AF01800353AFFE7F39
:1035D3000122EFFD3395E0FCBCFF09BDFF06E59A30
:1035E3005401FF22EF6005439A018003539AFE7F43
:1035F3000122EFFD3395E0FCBCFF09BDFF06E59A10
:103603005402FF22EF6005439A028003539AFD7F21
:103613000122E4F5C275C78275C5018E758F768563
:1036230075C38576C475C65A75C6A5001237A2AF91
:10363300C2221237517FEE1234F47FF41234F47F36
:103643002E1234F4123796123103EE3395E0FDFC5B
:1036530022EF1FAA0670011E4A60107C137D88EDBD
:103663001DAA0470011C4A60E880F42275C78275A4
:10367300C5038E758F768575C38576C475C65A75F1
:10368300C6A5000237A2759A50E4F5A2F587F5B5F1
:10369300759CFD758E10D2AFF5B875AF0122900100
:1036A300DA12090D9001DAE0FCA3E0FDA3E0FEA32A
:1036B300E0FF0216DB1237DE7BFF300C067A377928
:1036C300EB80047A38790B1237C3221237DE7BFF83
:1036D300300A067A38792C80047A38794C1237C349
:1036E300221237DE7BFF3009067A38796D80047A3F
:1036F30038798D1237C322438920758DFD758BFD73
:10370300D28ED29CC29FD29ED2AFD2AC228F27122E
:1037130037517F461234F4AF271234F40237967FC1
:10372300011237107F101237107FC87E0002349EBB
:10373300300BFDC20BE4F51F7FF47E010233E2C2BE
:10374300A1123749D2A00000007F0ADFFE22D2A0D7
:10375300D2A1123749C2A0123749C2A122759D02D4
:10376300E4F5BD75BC807F02FE023654A20092A030
:10377300D2A1123749C2A10237497F017ED87D23E6
:10378300DDFEDEFCDFFA227BFF7A3C79D212302E9B
:103793000233ADC2A0D2A1123749D2A0023749E405
:1037A300F5C7F5C5F5C6F5C3F5C42200007F6C7EE9
:1037B30090DEFEDFFC22D2A1123749C2A1023749B3
:1037C3001237DE12302E02378AD295D296D2972242
:1037D300D2122012FD227F50DFFE22E4F57722C2AF
:1037E3009522C29722C29622534243283631293B5F
:1037F3004443563136283237352C3136332C274F54
:103803004E272C3136293B00534243283631293B7E
:103813004443563136283237352C3136332C274F33
:103823004646272C3136293B005342432834362958
:103833003B4443563136283237352C3232302C272D
:103843004F4E272C3136293B005342432834362927
:103853003B4443563136283237352C3232302C270D
:103863004F4646272C3136293B00534243283233F7
:10387300293B4443563136283139302C3232302CEF
:10388300274F4E272C3136293B00534243283233EE
:10389300293B4443563136283139302C3232302CCF
:1038A300274F4646272C3136293B0041542B4349A9
:1038B3005053454E443D312C25640D0A0041542B91
:1038C30043495053454E443D322C25640D0A004173
:1038D300542B43495053454E443D302C25640D0A27
:1038E30000646F6F724F6E006F70656E0D0A006338
:1038F3006F6D65496E00636F6D65496E0D0A004615
:1039030053494D4728323235303735322C302C303D
:103913002C3332302C3234302C302900646F6F72E8
:103923004F6666006C696768744F6E006F70656EF2
:103933006C0D0A006C69676874436C6F7365006390
:103943006C6F73656C0D0A00636C6173730063685D
:10395300616E6765006368616E67650D0A004154B7
:103963002B4349504D55583D310D0A0041542B43CB
:10397300495053544152543D302C22544350222C2D
:10398300223230332E3139352E3133342E31313525
:10399300222C373030300D0A0041542B4349505309
:1039A30045525645523D312C383038300D0A00749B
:1039B300696D650D0A0074696D6500434C522831C9
:1039C300293B0044435631362833302C33302C27DF
:1039D30000272C3138293B00434C52283136293BF0
:1039E3004449522833293B4653494D4728323039FD
:1039F300373135322C302C302C3332302C323430BA
:103A03002C302900006C6F636B4F6E0D0A00465318
:103A1300494D4728323039373135322C302C302C50
:103A23003332302C3234302C302900434C52283579
:103A330031293B4449522833293B00000000000050
:103A43000000000000000000000000000000000073
:103A53000000000000000000000000000000000063
:103A63000000000000000000000000000000000053
:103A73000000000000000000000000000000000043
:103A83000000000000000000000000000000000033
:103A93000000000000303B303BD4CBBFD87CB2A940
:103AA300D1A7C2A5413036003A002020000D0A00FC
:103AB300434C52283531293B4449522833293B0092
:103AC300534243283531293B44435632342831305D
:103AD300302C35352C2700534243283531293B44BC
:103AE30043563234283130302C38302C270053429F
:103AF30043283531293B4443563234283130302C66
:103B03003130352C2700534243283531293B444378
:103B1300563234283130302C3133302C2700534285
:103B230043283531293B4443563234283130302C35
:103B33003135352C2700272C3136293B0046534994
:103B43004D4728323731313535322C302C302C3338
:103B530032302C3234302C3029004653494D47281B
:103B6300323430343335322C302C302C3332302C49
:103B73003234302C302900534243283631293B4418
:103B8300435632342838302C32352C2700444356E0
:103B930032342838302C35302C2700D4C200C8D515
:103BA300272C3136293B0044435632342838352CF0
:103BB30037352C2700D0C7C6DAD2BB00D0C7C6DA48
:103BC300B6FE00D0C7C6DAC8FD00D0C7C6DACBC47C
:103BD30000D0C7C6DACEE500D0C7C6DAC1F900D037
:103BE300C7C6DACCEC0007090E10123232140032C9
:103BF3005342432831293B44435632342832343527
:103C03002C35302C27002E00A1E6272C3136293BFA
:103C130000534243283439293B4443563136283133
:103C230037302C3136342C27004B5061272C31365A
:103C3300293B00534243283133293B444356313611
:103C4300283130332C3230302C27004C7578202724
:103C53002C3136293B00534243283134293B44431A
:103C63005632342831382C3230302C270025272C7B
:103C73003136293B0025733B00257325733B0053E5
:103C83004243283531293B444356323428002C0023
:103C93002C27003A00272C3330293B00272C3136C0
:103CA300293B00434C52283136293B44495228339F
:103CB300293B4653494D4728323039373135322C69
:103CC300302C302C3332302C3234302C3029000D50
:023CD3000A00E5
:00000001FF
